:020000040800F2
:10000000004000201DBF0008198800081D88000856
:1000100000000000000000000000000000000000E0
:10002000000000000000000000000000218800081F
:100030000000000000000000258800082988000852
:100040006DBF0008000000006DBF00086DBF000814
:100050006DBF00086DBF00086DBF00086DBF0008D0
:10006000000000006DBF00086DBF00086DBF0008F4
:100070006DBF00086DBF00086DBF000800000000E4
:100080006DBF000831880008418800086DBF000876
:100090006DBF00086DBF00086DBF00086DBF000890
:1000A0006DBF00086DBF00086DBF00086DBF000880
:1000B0006DBF00085188000800000000618800083A
:1000C00010B5064C2378002B07D1054B002B02D02E
:1000D000044800E000BF0123237010BD7803002016
:1000E00000000000C41D0108044B10B5002B03D014
:1000F0000349044800E000BF10BDC04600000000F6
:100100007C030020C41D010802780B78002A03D06C
:10011000013001319A42F7D0D01A70470023C25CF7
:100120000133002AFBD1581E7047000002B471460B
:1001300049084900095C49008E4402BC7047C0462A
:1001400003B47146490840004900095E49008E44E5
:1001500003BC7047002243088B4274D303098B42CF
:100160005FD3030A8B4244D3030B8B4228D3030C87
:100170008B420DD3FF22090212BA030C8B4202D329
:100180001212090265D0030B8B4219D300E0090A51
:10019000C30B8B4201D3CB03C01A5241830B8B425A
:1001A00001D38B03C01A5241430B8B4201D34B0343
:1001B000C01A5241030B8B4201D30B03C01A5241A8
:1001C000C30A8B4201D3CB02C01A5241830A8B422D
:1001D00001D38B02C01A5241430A8B4201D34B0216
:1001E000C01A5241030A8B4201D30B02C01A52417A
:1001F000CDD2C3098B4201D3CB01C01A524183092E
:100200008B4201D38B01C01A524143098B4201D367
:100210004B01C01A524103098B4201D30B01C01A92
:100220005241C3088B4201D3CB00C01A524183080C
:100230008B4201D38B00C01A524143088B4201D339
:100240004B00C01A5241411A00D201465241104699
:100250007047FFE701B5002000F0F0F802BDC0468E
:100260000029F7D076E7704703460B437FD400227E
:1002700043088B4274D303098B425FD3030A8B423A
:1002800044D3030B8B4228D3030C8B420DD3FF22A4
:10029000090212BA030C8B4202D31212090265D072
:1002A000030B8B4219D300E0090AC30B8B4201D325
:1002B000CB03C01A5241830B8B4201D38B03C01A6C
:1002C0005241430B8B4201D34B03C01A5241030BE3
:1002D0008B4201D30B03C01A5241C30A8B4201D394
:1002E000CB02C01A5241830A8B4201D38B02C01A3F
:1002F0005241430A8B4201D34B02C01A5241030AB6
:100300008B4201D30B02C01A5241CDD2C3098B429A
:1003100001D3CB01C01A524183098B4201D38B0117
:10032000C01A524143098B4201D34B01C01A5241BA
:1003300003098B4201D30B01C01A5241C3088B42FF
:1003400001D3CB00C01A524183088B4201D38B00EA
:10035000C01A524143088B4201D34B00C01A52418C
:10036000411A00D201465241104670475DE0CA0F63
:1003700000D04942031000D34042534000229C4623
:1003800003098B422DD3030A8B4212D3FC2289012D
:1003900012BA030A8B420CD3890192118B4208D303
:1003A000890192118B4204D389013AD0921100E065
:1003B0008909C3098B4201D3CB01C01A5241830979
:1003C0008B4201D38B01C01A524143098B4201D3A6
:1003D0004B01C01A524103098B4201D30B01C01AD1
:1003E0005241C3088B4201D3CB00C01A524183084B
:1003F0008B4201D38B00C01A5241D9D243088B42A1
:1004000001D34B00C01A5241411A00D20146634643
:1004100052415B10104601D34042002B00D54942A7
:10042000704763465B1000D3404201B5002000F0E6
:1004300005F802BD0029F8D016E770477047C0469E
:100440008446100062468C461900634600E0C046B0
:100450001FB500F07DFF002801D40021C8421FBD58
:1004600010B500F0CDFE4042013010BD10B500F0D7
:100470006FFF002801DB002010BD012010BDC04629
:1004800010B500F065FF002801DD002010BD01203F
:1004900010BDC04610B500F0F5FE002801DC0020BC
:1004A00010BD012010BDC04610B500F0EBFE0028C5
:1004B00001DA002010BD012010BDC04670B5002239
:1004C0000C4B04000D00FFF7EFFF002804D12000C3
:1004D000290001F0BDFD70BD064B0022200029005F
:1004E00001F006FA01F0B4FD80231B069C4660442F
:1004F000F1E7C0460000E04170B505000C000022A5
:10050000002328002100FFF7B1FF002808D12800B0
:10051000210000F00FF802000B001000190070BD60
:1005200080231B06E118280000F004F80023424253
:100530008B41F2E770B500220B4B0D00040000F078
:100540006BFFFFF7BBFF060001F0E8FD0022074B41
:1005500000F062FF02000B002000290001F0C8F942
:10056000FFF7ACFF310070BD0000F03D0000F0412E
:1005700070B50600080001F0A1FD0022064B00F056
:100580004BFF0D000400300001F0C8FD2B002200DD
:1005900000F004F870BDC0460000F041F0B54F46D1
:1005A0004646D6460D000400C0B51F0011002803C2
:1005B000620F400A10437A00520DE3003C0391465B
:1005C000640AFA0F4F0F6E0027439246B846760D25
:1005D000ED0FC900954200D199E04C46341BA4466A
:1005E000002C00DC7CE04A46002A00D1B8E0C54A75
:1005F000964200D11CE180223C0012041443A04624
:100600006246382A00DD61E11F2A00DDCCE1644644
:100610002022121B444694400F00A146644691409C
:10062000E7404C464A1E91413C43424621436446C2
:10063000E240801A5C1AA3429B415F42C71B3B0207
:1006400000D4D0E07F027F0A002F00D1FFE0380005
:1006500001F08AFD01000839202322005B1A8F4037
:10066000DA408C401743B14200DAFFE0891B4B1C93
:100670001F2B00DDA8E020223900D21A2000944070
:100680009140D840621E9441DF40002601430C4354
:10069000630709D00F232340042B05D0231DA34259
:1006A000A44164423F191C003B0200D49EE0954BDC
:1006B00001369E4200D1B7E0934AE40817407B0719
:1006C00071057F0223433F0B4A0D12053A43ED07A4
:1006D0002A4318001100E0BCBA46B146A846F0BD56
:1006E000002C4BD04C46A41BA446002E00D023E186
:1006F00004001C4300D1AFE16246541E012A00D120
:1007000015E2804DAC4500D1C8E1A4461BE14A4644
:10071000B21A9446002A00DCACE04A46002A43D0D4
:10072000784A964200D1AFE180223C001204144383
:10073000A0466246382A67DC1F2A00DC5FE1474694
:10074000203AD7406246202A05D064464022121B38
:100750004446944021434A1E91410C003C4357E0DB
:100760003A000A4300D105E12200013A012C00D1F0
:1007700082E1644CA4455BD0944641E7634C771C0E
:10078000274200D0C4E004001C43002E00D069E1E1
:10079000002C00D1BFE144460C4300D0D0E1420719
:1007A000DB081343C00829E03A000A4300D170E196
:1007B00062466446013A012C00D1E0E0514CA44568
:1007C00000D161E19446B4E73A001F39CA401100F4
:1007D000202B03D04022D31A9F403C43631E9C41F0
:1007E000002700260C43630700D053E7B446E40813
:1007F0007B072343F808434A94451DD0624607030C
:1008000052053F0B520D60E744460C43621E944173
:10081000E4189C429B415F423F183B02E3D5394BB1
:1008200001369E4200D0B5E03200002700234CE79D
:100830004207DB081343C0081A00024300D1E1E17C
:1008400080273F0307433F032E4A3F0B3DE720002D
:1008500001F08AFC010018311F2900DCFCE6083891
:10086000844027000024B14200DBFFE6264A761AC6
:1008700017400DE7002A2FD04A46921B9446002EBF
:1008800000D1ADE01F4A914500D10FE18022120452
:1008900010436246382A00DD0FE11F2A00DD80E1A7
:1008A000644620221E00121B6746040093409440B9
:1008B000FE405A1E9341F84034431C438044641860
:1008C0008C42BF417F424E464744A6E742460A4318
:1008D00011004A1E9141ADE60C4C721C224200D020
:1008E000A1E002001A43002E00D0FAE0002A00D155
:1008F00045E13A000A4300D046E14207DB081343D2
:10090000C0087BE7FF070000FFFF7FFFFE07000036
:1009100047465C1AC21BA342BF417F42B94617003B
:100920004A46BF1A3A0200D58DE023003B4300D06F
:100930008AE60020002561E7B44CA14500D1ADE076
:100940008024240420436446382C3DDC62461F2C5E
:1009500000DDB7E020251E002D1B0400AB40AC409D
:10096000D640D04042465D1EAB413443121A9046F9
:1009700023432CE04207DB081343C0083BE75C1825
:100980009C429B4140445B42C71801263B0200D475
:1009900029E702269E4A63081740012214401C439F
:1009A000FB071C437F0873E64446203AD440624666
:1009B000202A05D067464022D21B4746974039433C
:1009C0004A1E9141214335E60343581E8341CC1A08
:1009D000A142BF4143467F4255464E46DF1B2EE6AD
:1009E00002001A4300D1BDE062466446013A012C80
:1009F00000D1E5E0854CA44558D0944649E76446CB
:100A00002022121B444694400F00A14664469140A8
:100A1000E7404C464A1E91413C4342460C436146E6
:100A2000CA408018F4E6794CA24200D1FDE659187C
:100A300099429B4140445F42C719FC074908160090
:100A40000C437F08CFE6CC1AA142BF4143467F4208
:100A5000181A5546C71BF7E5C9087B0755460B43CF
:100A6000F808C8E6002C00D081E043460B4315D1BE
:100A7000802000250003E3E65C1AA3429B41C71BCC
:100A80005B420126FF1ADAE54207DB081343C00880
:100A9000D2E64207DB081343C008ACE643464246B1
:100AA000C9085B0755460B43D008C5E64346424696
:100AB0005B07C9080B43D008BEE603431C00631E56
:100AC0009C41FCE60200203CE24014006246202AE1
:100AD00003D04025AD1AA8400343581E8341234349
:100AE00075E7002AE2D03A000A43CDD04207DB087E
:100AF00013438022C0081203104206D0FC0814429F
:100B000003D12000CB087A0713435A0FDB005207AA
:100B1000DB08134390E643460B4300D109E7434605
:100B20004246C9085B0755460B43D00866E6CC1A17
:100B3000A14289413F1A4942554601267F1A7EE566
:100B400042465C1A871AA34292415242BF1A3A02A5
:100B50003DD5CC1AA1428941434649421F1A554608
:100B60007F1A95E57B07C9080B43F80843E644461E
:100B7000DB080C4330D142071343C0085CE67B0717
:100B8000C9080B43F80839E65C189C429B41404475
:100B90005B42C7183B0200D425E61D4B01261F40CF
:100BA00021E60400203AD4406246202A04D04022A4
:100BB0006646921B904003435A1E93411C437EE6B7
:100BC0005C188C428941404449424718DDE62300C5
:100BD0003B4300D1ADE606E6440723438024C0082A
:100BE0002403204208D04246D608264204D1554666
:100BF0003000CB0851070B435A0FDB00DB085207CC
:100C0000134319E60023014A1F005EE5FF070000B9
:100C1000FFFF7FFFF0B557464E464546DE46E0B53E
:100C2000814605000C03480092461F0085B0240B46
:100C3000400DCE0F002800D156E1D44B984200D190
:100C400072E16B0FE4001C4380231B04234398468E
:100C5000CF4BED009B4600239946834400933C0311
:100C60007B005046240B5B0DFF0F002B00D11FE1D2
:100C7000C64A934200D162E1C549420F8C46E40066
:100C800059461443802263441204CB1A14439B46F2
:100C9000C200002033007B409A464B460F2B27D8DA
:100CA000BC499B00CB589F46B246009B022B16D0F6
:100CB000032B00D18EE2012B00D0D9E000230024C9
:100CC000002552461B052343D20713432800190071
:100CD00005B0F0BCBB46B246A946A046F0BD002414
:100CE0000025AA4BEDE7BA46A04615000090DCE7C8
:100CF000444500D2C7E100D1C2E101235B429C46DA
:100D00002E0040460025E3442302140E1C431B0C16
:100D1000994623041F0C1202494600920197FFF7DF
:100D20009FFA02007A430B04310C804619438A4231
:100D300007D901235B429C460919E0448C4200D844
:100D400007E2881A4946FFF78BFA09048C463104FA
:100D50006646019A090C4243030031438A4204D992
:100D60000919013B8C4200D8EDE1881A4246120471
:100D70001A4390464146009B0E041B0C1F00029331
:100D8000009B360C1B04190C0B007343120C7E43A2
:100D9000039151437A431F0CBC4676186644B14216
:100DA00003D9802149028C466244310C8A183104EF
:100DB0001E04360C8E19904202D312D1B54210D2C5
:100DC0004346591E009B9C4665441F009D429B4123
:100DD0005B421B19C018844200D2A0E100D19BE104
:100DE0008846AE1BB542AD41801A6D42401B84421D
:100DF00000D1D5E14946FFF733FA019A0B0442438B
:100E0000310C050019438A4200D96CE1881A494621
:100E1000FFF726FA019A360442430904360C030010
:100E20000E43B24200D953E10398B61A02002D04D2
:100E30001D43029F2B041B0C5A437B439C46290CE9
:100E40004843130C844463447943984203D9802077
:100E5000400284466144180C12041B04120C411811
:100E60009B188E4200D2FFE000D1FAE001231D431F
:100E7000494A5A44002A00DCAAE06B0700D03DE151
:100E8000ED084346DB0106D54246444B1A409046E6
:100E90008022D2005A44424B9A4200DD1FE743466B
:100EA0005B071D43434652055C02240B530D08E7C4
:100EB0005246224300D17BE0002C00D1FAE0200012
:100EC00001F052F902000B3A1D2301009B1A524611
:100ED0000839DA408C40144352468A40314B58441A
:100EE0009B4683440020D5E64B462343984644D096
:100EF000002C00D1CEE0200001F036F90100020004
:100F00000B391D235B1A49461000D940083884402C
:100F10000B004D462343984685402348831A9B4641
:100F20000023994600939AE64B46234398461DD1E9
:100F300008239946063B0025834600938FE65246D8
:100F4000224309D1022349461943184B89469C463E
:100F500000240220E3449DE603234A461A43134B30
:100F600091469C4652460320E34493E60C2399465F
:100F7000093BA0468346009371E60423994600236B
:100F80009B4601330025009369E6C046FF07000039
:100F900001FCFFFFE01D0108FF030000FFFFFFFE53
:100FA000FE070000F30300000DFCFFFF01F8FFFF48
:100FB0004946012319438946002401206AE600239B
:100FC00080249A4600258A4B24037AE601256D4247
:100FD00001239B1A382B00DD70E61F2B00DCBFE0DD
:100FE0001F2149428A1A4146D1400A00202B04D0D1
:100FF0004146804B5B4499400D436B1E9D41072346
:101000002A431D0000241540134200D1D4E00F21D3
:1010100000231140042900D1CBE0111D91429241DF
:1010200052429B180A00190200D4C2E00123002496
:10103000002546E6802341461B03194208D01C4286
:1010400006D11C432403BA461500694B240B38E62D
:101050008024434624031C432403B246644B240BE0
:101060002FE6002B00D103E7A619681EA64200D286
:101070008DE08E4200D2A3E000D1B3E00500F5E69A
:10108000AA4200D939E64346DE0758086B081E43DA
:10109000ED0739E6484601F067F801000200153116
:1010A00020321C2900DC2CE74B4608388340002501
:1010B000984632E701F058F803001A001532203044
:1010C0001C2A00DC00E75446083B00229C4005E750
:1010D0003619013BB44200D9A6E6B24200D8A3E6D5
:1010E000831E3619A0E60919013D8C4200D98DE610
:1010F0008A4200D88AE6851E091987E60F232B400D
:10110000042B00D1BCE605235B42AB429B41043576
:101110005B42ED089844B4E6AF4200D960E68242F3
:1011200004D800D05CE6AE4200D859E602235B4208
:101130009C46009BE0449C4665449D429B415B422B
:101140001B19C0184DE68A4200D80EE6831E091905
:101150000BE68A4200D8F4E5831E98460919F0E5AB
:101160002549280059448D4042468A40691E8D41D8
:101170004146D840D94002432A430B00510700D1D1
:1011800051E70F211140042900D046E74BE7050045
:101190008E4200D06AE6009A934200D066E667E687
:1011A000164A5A44002A00DC10E70123002598441F
:1011B00067E65D075B021C0BD2080023154380E540
:1011C0000098023D42008242BF417F423C193619DD
:1011D0000092DDE78024434624031C432403044B90
:1011E000240B6EE5009A9A42EAD30500D3E7C04685
:1011F000FF0700003E0400001E040000FF03000083
:10120000F0B54E464546DE4657469046E0B51700D7
:101210001A03120B0500844619480E034C00914630
:101220005A00DB0F9B46360B640DC90F520D8442EA
:1012300019D0824210D0012094420ED14E450CD1DB
:101240000120C44509D1594517D0002C05D13000E3
:101250002843431E984100E00120F0BCBB46B24643
:10126000A946A046F0BD330001202B43F5D1A24290
:10127000F3D14B463B43F0D1E2E70020EDE7C04617
:10128000FF070000F0B54746CE46040018001600E0
:101290001B031B0B2D4D4A00994680B543000F03DD
:1012A000A446B0463F0B520DC90F5B0DC00FAA42BA
:1012B00021D0AB4213D0002A22D13C43002B02D1D3
:1012C0004D462E4322D0002C10D0814222D0022045
:1012D000013908400138C0BCB946B046F0BD4D46A2
:1012E0002E4329D1002AF0D13C43EED10028F2D17F
:1012F00001204042EFE73D0025431DD19342EED04F
:10130000002BE2D14C462643DFD1E0E70020002C41
:10131000E1D0DCE79A420ADCE8DB4F45D7D80ED0B3
:1013200000204F45D7D20029E2D00800D3E743423E
:10133000584140000138CEE702204042CBE7C44587
:10134000C5D80020C445C6D2EDE7C046FF0700005F
:10135000F0B54746CE460400180016001B031B0BD1
:101360002C4D4A00994680B543000F03A446B04671
:101370003F0B520DC90F5B0DC00FAA420DD0AB42FF
:1013800010D0002A27D13C43002B11D14D462E43CB
:101390000ED10020002C15D00EE03D00254310D1C9
:1013A000934218D14D462E430BD1002A02D13C4323
:1013B000002C0BD0814214D00220013908400138A2
:1013C00000E00220C0BCB946B046F0BD0028F9D10B
:1013D00001204042F6E7002BECD14C462643E9D1F0
:1013E000EAE79A4204DD4342584140000138E9E708
:1013F0009A42EBDB4F45DFD806D000204F45E1D2C3
:101400000029E5D00800DDE7C445D5D80020C44553
:10141000D8D2F5E7FF070000F0B557464E464546DF
:10142000DE46E0B598460C034B000600924687B0B6
:10143000240B5B0DCF0F002B00D15CE1D94A934206
:1014400000D175E1420FE4001443802212041443DA
:10145000D54AC500944663440093002399469B46B1
:10146000434642461E03D20F5B0050469046360B61
:101470005B0D00D120E1CB4A934200D162E1CA4921
:10148000420F8C4600996344F6008C461643802236
:101490009C44120463461643C20000200093009946
:1014A000434601318C4649467B4001930F2926D89B
:1014B000BE4B890059588F464346019334001500AE
:1014C00083465B46022B16D0032B00D103E2012B8F
:1014D00000D0CDE0002200240025019B120522430C
:1014E000DB071A432800110007B0F0BCBB46B24628
:1014F000A946A046F0BD00240025AA4AEDE7280C25
:101500002D042D0C2B00110C1204120C5343984681
:1015100013002F00434399464F434F44BB46474671
:101520000B003F0CBA464343DA440293D14504D939
:1015300080277F02B9464B44029353461B0C9B46BF
:1015400053461F0443461B041B0C98463B00434470
:101550000493330C3604360C9846330043439946C3
:10156000434643432F009A46434677435D43380C36
:101570004D444519A94503D980235B029946CA44C5
:101580003F04280C3F0C2D04ED19270C2404240CD7
:101590000300200050437A4391463A005344059398
:1015A000030C9A464A43614349445144AB4489453C
:1015B00003D980235B0299464A4400040B0C000CBB
:1015C0000904091820009946434670435C437E4352
:1015D0005F43030C9846A41944444A440397A64227
:1015E00004D980235B029846474403972304029E54
:1015F0009A46059B5E449846AE42AD4176188E42AF
:1016000089410004000C504440446D424719B846DB
:10161000934649428946C344D94498428041A845EB
:10162000AD4193459241894589416D4240422843ED
:10163000240C524249420A43039B00198018C718E0
:101640004B46DC0D049B75021D436A1E95414B46BB
:10165000F60D7F0235435A023C431543FB0100D48B
:101660001CE101216A080D401543E2071543640897
:101670004F496144002900DCB0E06B0709D00F221C
:101680002A40042A05D02A1DAA42AD416D426419A0
:101690001500E30104D58021464AC9001440614485
:1016A000454A914200DD26E76207ED0864024905DC
:1016B0001543240B4A0D10E75246324300D17FE018
:1016C000002E00D1DCE0300000F04EFD02000B3AAD
:1016D0001D2301009B1A52460839DA408E401643FA
:1016E00052468A40009B3549181A03008C466344D1
:1016F00000200093D3E6250005434AD0002C00D1FA
:10170000B0E0200000F030FD010002000B391D2385
:1017100010005B1A3100350008388440D9408540FC
:101720000C432648831A0093002399469B4697E66C
:101730000500254326D10822009302230024914668
:101740009B468DE65246009B324310D11549002638
:101750008C4663444946009302231943894602207C
:101760009DE65B460197022B00D0ADE6C3E60D4A2D
:101770000320944663444A46009303231A43914648
:1017800052468CE60C2200930323050091469B46AB
:1017900066E60423994600230093013300249B4608
:1017A0005EE6C046FF07000001FCFFFF201E0108A7
:1017B000FF030000FFFFFFFEFE0700000DFCFFFF20
:1017C00049460123194389460026012067E6002384
:1017D00080240025434A019324037EE60120401A19
:1017E000382800DD76E61F285BDD1F2223005242E9
:1017F000511ACB401900202803D03B4A6244944040
:1018000025436A1E95412A000A4307210D00002442
:10181000154011425BD00F2100241140042953D000
:10182000111D914292415242A4180A0023024BD545
:1018300001220024002550E680231B031C4209D00E
:101840001E4207D133431C0343461500240B254A8F
:10185000019342E68022120314432403214A240BFD
:1018600001973AE600F080FC0100020015312032B9
:101870001C2900DC4BE7340008380025844050E781
:1018800000F072FC03001A00153220301C2A00DC24
:101890001EE75646083B00229E4023E7009B9C46DD
:1018A000E6E61249220061442E008D408A40C6407F
:1018B000691E8D4132432A43C4405307B6D00F21DD
:1018C00011400429ACD1B1E765076402240BD208AA
:1018D0001543002201E68022120314432403014A27
:1018E000240BFAE5FF0700003E0400001E04000080
:1018F000F8B557464E464546DE46E0B51E00170091
:101900004A000B03520D5B0A9046420F1A43CD0F5B
:10191000CD4C3103C300944670007A0F490AFF0092
:101920009A46B946400DF60F1143A04200D1B1E0EE
:1019300001225640B346B54200D188E04246121A11
:10194000002A00DCAEE0002800D1C1E0BE4880459E
:1019500000D151E1802000040143382A00DD7BE101
:101960001F2A00DDEEE120203E00801A0C00D64048
:10197000D140874062468440521A781E874194467F
:1019800034432743DC1BA3429B4162465B42D31A8C
:1019900099464B461B0200D418E14B465802430AB5
:1019A00099464B46002B00D137E1484600F0DCFB5E
:1019B000010008392023220048465B1ADA4088409B
:1019C0008C4043461043884500DD36E1C91A4B1C64
:1019D0001F2B00DDEAE020222600D21A01009440ED
:1019E000DE40D84000239140621E944181469846D3
:1019F00031430C43630709D00F232340042B05D048
:101A0000231DA342A4416442A1441C004B461B0277
:101A100000D4DEE041468C4B0131994200D1E7E031
:101A20004B468A48E4080340180049055B0740021A
:101A300023434A0D040B1205ED0722432A431800E5
:101A40001100F0BCBB46B246A946A046F8BD4246CE
:101A5000121A002A52DD002800D19CE0A04500D1D6
:101A6000CAE0802000040143382A00DD49E11F2A32
:101A700000DC97E110000E002038C640202A04D078
:101A80004020821A91400F43B9464C46621E944151
:101A900034433AE10A003A4328D0B346B5422BD04A
:101AA0006B4A4244002A5DD042464446821A002CCA
:101AB00000D0F5E065461D4300D19CE1551E012A8A
:101AC00000D1FBE1604CA24200D1BDE12A00F0E070
:101AD0000800384300D1C3E0501E012A00D1A8E11C
:101AE000594CA24200D187E0020036E7012256405D
:101AF000B346B54200D021E7554A4244002A00D1FE
:101B0000B5E042464446821A002C00D138E14E4EE0
:101B1000B04200D1DEE18026644636043443A44658
:101B2000382A00DD96E11F2A00DD24E22026B41ABF
:101B3000A24664465646B440A1461C004E46D440D8
:101B4000264334005646B3405E1EB3411C436346F1
:101B5000D340C918E419BC42BF417F42B946804610
:101B60008944D8E040463B4C0130204200D0B4E0EC
:101B70004046002800D044E16046184300D190E17F
:101B80000800384300D0AAE16146DB0849070B434F
:101B90006146CC0827E00800384361D0501E012A76
:101BA00000D139E1A24227D002005DE702001F39CF
:101BB000CA401100202B03D04022D31A984004437E
:101BC000631E9C410023994698460C43630700D04E
:101BD00012E74B464A46E4085B072343D4084246D3
:101BE00019498A420ED024035205240B520D22E7D4
:101BF0000A00002400231EE7DB0862465207134355
:101C00006246D4081A00224300D1FCE1802212036C
:101C1000144324030C4A240B0DE7200000F0A4FA1F
:101C2000010018311F2900DCC4E60838844043460F
:101C300020000024884500DCC8E6044A5B1A1040F6
:101C400098468146D6E6C046FF070000FFFF7FFFAB
:101C500001F8FFFFFE0700000F437A1E974191E64F
:101C60006146DB0849070B436146CC08B8E74046AC
:101C7000D34C0130204200D0A2E04046002800D0E2
:101C800001E16046184300D15EE10800384300D00E
:101C90005FE16146DB0849070B436146CC08A2E7D8
:101CA000C84DA84200D1CFE0802564462D042C43C6
:101CB000A446382A56DC1F2A00DDD1E020251E006C
:101CC000AD1A6446AB40AC40D6405D1EAB413443D8
:101CD00023436446D440091B49E06046DC1B461A96
:101CE000A34280414042814630004E46801B8146DF
:101CF000000276D44B46234300D052E60024002550
:101D000071E739430C00621E9441E4189C429B41E8
:101D10005B42634499464B461B0200D456E70123BD
:101D20009C46A84BE044984538D04B46A648012233
:101D300003401800630814401C43C3071C434308B6
:101D4000994657E610000E002038C640202A04D0DD
:101D50004020821A91400F43B9464F467A1E974160
:101D600037430FE662461A4313005A1E9341FC1A8A
:101D7000A742BF417F42CB1B99465D46804608E69D
:101D800066461E4300D1BEE0561E012A00D109E17D
:101D90008C4CA24200D119E13200C1E64246002437
:101DA000002348E620200C00801A3E008740844033
:101DB000D640781E8741D14034433C438C44A4E74D
:101DC000804A904200D1E9E0DF199F429B41614483
:101DD0005B42C918CC077F084B08994680463C43B4
:101DE000F4E6FC1AA742BF4163467F42C91ACB1BE7
:101DF00099465D46D5E5FF084B075D463B43CC0859
:101E0000EEE662461A4300D082E00B003B431BD152
:101E1000802400252403F9E6DC199C429B4161449F
:101E200089465B4299444B461B0244D401239846A1
:101E3000CCE6DC1B6246A3429B41511A5B42CB1AA3
:101E4000994601239846A4E5FF084B075D463B43AE
:101E5000CC08D7E662461A431400631E9C4179E61B
:101E600015006446203DEC40A046202A05D04025C0
:101E70006446AA1A944023439A465446631E9C41E2
:101E80004346234373E762461A4323D00A003A438A
:101E900000D0A0E06246DB08520713436246D40834
:101EA000B0E60B003B4300D128E7FF084B075D4637
:101EB0003B43CC0897E60223984636E7FC1AA74234
:101EC000BF4163467F42C91ACB1B994601235D4639
:101ED00098465EE54B07FF083B43CC0892E6DC1BC7
:101EE0006046A342B641401A7642801B81460002FA
:101EF00060D5FC1AA742BF4163467F42C91ACB1B7B
:101F000099465D4676E5FF084B073B43CC0867E6FC
:101F10000A00DB083A4300D16FE6624652071343DA
:101F20006246D40880221203144207D0C808104227
:101F300004D15D460400FB0849070B435A0FDB0040
:101F4000DB08520713435DE64B07FF083B43CC0811
:101F500049E6DC199C429B41614489465B429944B5
:101F60004B461B0200D431E64A46174B1A40012368
:101F7000914698462AE616006446203EF440A04664
:101F8000202A05D040266446B21A944023439A463C
:101F90005446631E9C4143461C43DBE5020000247B
:101FA000002348E5DC19BC42BF41614489467F42B9
:101FB000B94438E74B46234300D19FE606E6C046C6
:101FC000FE070000FF070000FFFF7FFFFF084B0731
:101FD0003B43CC0816E66246DB08520713436246D1
:101FE000D40880221203144207D0C808104204D13A
:101FF0005D460400FB0849070B435A0FDB005207FC
:10200000DB081343FEE50023014A1C0013E5C0462C
:10201000FF07000070B505000C481C0316005B00AC
:102020000A034900120B490D240B5B0D814208D0B5
:10203000064A0020934203D120003043431E9841BA
:1020400070BD01202A43FBD1F2E7C046FF07000024
:102050000A0030B5134C530009030500090B00209A
:102060005B0DD20FA34204DD0F48834202DD0F4B0C
:10207000D01830BD8020400301430D48C01A1F28EE
:1020800008DD0C48C31AD9400B005842002AF0D191
:102090001800EEE7084CC540A446634499400B0085
:1020A0002B43F2E7FE0300001D040000FFFFFF7F4B
:1020B0003304000013040000EDFBFFFF70B500289F
:1020C00016D0C317C5185D40C40F280000F04CF8A7
:1020D000114A121A0A2816DC03002E0015339E40FE
:1020E0000B23181AC54052052D032D0B530D03E089
:1020F00000240023002500261B052B43E40723436F
:102100003000190070BD0B38854052052D030026A4
:102110002D0B530DF0E7C0461E04000010B5041E41
:1021200010D000F021F80F4B1B1A0A2811DC0B22EB
:102130002100121AD14015300A035B058440120BAE
:102140005B0D01E0002300221B0513432000190052
:1021500010BD22000B3882405B0512030024120BD5
:102160005B0DF1E71E0400001C2101231B049842B3
:1021700001D3000C10391B0A984201D3000A083918
:102180001B09984201D30009043902A2105C4018CF
:102190007047C04604030202010101010000000073
:1021A0000000000010B50400FA200E4B80001978E2
:1021B000FDF7D0FF0C4B01001868FDF7CBFF00F0D6
:1021C00089F800280CD10130032C00D910BD023849
:1021D0000022210000F040F8044B00201C60F5E7CD
:1021E0000120F3E70000002040010020040000204F
:1021F0001021064A10B5136803200B431360FFF744
:10220000D1FF06F04DFA002010BDC046002002406C
:10221000034A044B11681B785B1813607047C04673
:102220009403002000000020014B18687047C0464E
:102230009403002070B50400FFF7F6FF0500631C4F
:1022400002D0044B1B78E418FFF7EEFF401BA042BE
:10225000FAD370BD0000002070B5002814DB154BC8
:1022600003229C46FF23840810401A00C026C000A9
:10227000890182400B408340A4006444B600A55904
:1022800095432B43A35170BD0B4A0F239446032261
:1022900003401040FC321500C000890185400A400F
:1022A0008240083B9B089B006344DC69AC432243AB
:1022B000DA61E8E700E100E000ED00E0002805DB7E
:1022C0001F2318401E3B8340014A13607047C046DD
:1022D00000E100E08022431E5204012093420ED20E
:1022E000C021074A07485360036A09061B021B0AFC
:1022F0000B43036200230020936007331360704791
:1023000010E000E000ED00E0212330B5C25C022ABD
:1023100006D000221D3B83631C33C254012030BD14
:102320000E240268056C1168A14311600121146834
:102330008C4314600C00AC40C26B5460C15400224A
:102340002023C2540020EAE7212370B5C25C022A90
:1023500003D01D3B8363012070BD0E240268056C11
:102360001168A1431160012114688C4314600C00B2
:10237000AC40C26B5460C15400222023C254436B52
:10238000002B02D098470020E6E70020E4E7C04693
:1023900010210D4B10B5DA680B001340114205D027
:1023A0000A4A0E39D3690B43D3611023064AD16818
:1023B00004220A4205D0012404481343C169214381
:1023C000C161014AD36010BD002002409803002083
:1023D000064B00201A69120606D5054A5A60054ABE
:1023E0005A6018690006C00F7047C04600200240BE
:1023F00023016745AB89EFCD8021034A0020136993
:102400000B4313617047C04600200240F8B504003A
:10241000FFF70AFF01260700124D01E0631C0FD1F0
:10242000EB681E42FAD12023EA68134211D10D4B0A
:10243000DA68D20612D4DB6800205B070ED4F8BD40
:10244000002C04D0FFF7F0FEC01BA042E8D9032007
:10245000F5E7EB60034BDA68D206ECD5FFF798FF9F
:102460000120ECE700200240F0B54E465746DE461C
:102470004546E0B59A4683B02A4B019299461B7EA9
:1024800004000E00012B48D001254B4626481D763E
:10249000FFF7BCFF002836D1012C40D0023C63423C
:1024A0005C4104236442AC43A0469C46E0440023C4
:1024B00000259B4618E05346D3404A46594601271B
:1024C0001A4CD16122699BB23A432261164833808B
:1024D000FFF79CFF2369BB432361002813D101351B
:1024E000EBB2023698450ED920222B0152429A189F
:1024F000E1D520225146D21A91400A000199D940D3
:102500000B001343D9E700234A46137603B0F0BC0F
:10251000BB46B246A946A046F0BD0220F6E701231D
:102520009846C4E79803002050C3000000200240F2
:10253000F0B546464F46D646C0B5304F06003B7E06
:102540008846012B57D001233B7603682C48012B8A
:1025500034D0FFF75BFF002834D1012342465B42B1
:102560001360B3687568DB025B199D422AD20023B1
:10257000244C99460AE080231B019C4672686544FE
:102580009446B368DB026344AB421CD902224B463B
:102590009246FB6123691A481343236165612369ED
:1025A0003E3213432361FFF731FF524623699343C1
:1025B00023610028DFD043461D6004E0FFF726FFBB
:1025C000002807D0012000233B76E0BCBA46B14684
:1025D000A846F0BD042540220A4CF861236908484A
:1025E0002B432361236913432361FFF70FFF236903
:1025F000AB432361E7E70220E7E7C04698030020EA
:1026000050C3000000200240F0B5DE4657464E465B
:102610004546E0B50C688C460022002387B0002CAC
:1026200000D187E08049814F8B46614603910125A7
:1026300021009D40294001912C4274D003994968A2
:102640008A460321564631408C460139012900D87B
:1026500077E06146032900D0BCE065469540E94338
:1026600002910668029931402943C0250160514614
:10267000AD02294257D0594601255E468969294352
:10268000B161B16903262940694D0591AC460599B0
:102690001E409908B60089006144B4468D680F2633
:1026A000A9466546AE4035004E46AE43B14690263B
:1026B000F605B04212D05F4EB04200D1A4E05E4EAB
:1026C000B04200D1A8E05D4EB04200D195E0654631
:1026D0000526AE4035004E462E43B1464D468D6030
:1026E000019D8026ED43AC46554676023968354259
:1026F00000D07FE065462940554639607968AD03D2
:1027000000D574E06546294079605146BD68C9022C
:102710006AD461460D40BD605546F968AD025ED48D
:1027200065462940F96021000133D9400232002971
:1027300000D07CE707B0F0BCBB46B246A946A04635
:10274000F0BD8168894603219140CE4302964E46F2
:102750008E430399B146CE689640B0464E464146F8
:102760000E43866041680E005146AE430D090121BB
:102770000D409D4035434560C56802990D40A8460F
:10278000039946468D6895403543C5606646654663
:102790009540022E00D064E7D90889008C46844415
:1027A0006146096A894607210E001E40B1000F26C6
:1027B00088468E404946B143464689460399096991
:1027C000B1408846494646463143894661464E46B1
:1027D0000E6246E703219140C9430291CCE7019D77
:1027E0000D432900F9609EE701990D4393E7019D90
:1027F000294389E7019D29437EE766460325B540C5
:102800004E462E43B14669E765460126AE40350087
:102810004E462E43B14661E766460225B5404E4618
:102820002E43B1465AE7C046001002400004014062
:10283000000001400004004800080048000C004867
:1028400000690840431E9841C0B27047002A01D079
:10285000816170478162FCE70123074A82B0916978
:102860001943916192691340044A0193019B1368D3
:102870000343136002B070470010024000000140A3
:10288000F0B5C64600B5040086B000285FD0334BD3
:10289000C35CDAB2002B54D00322304BE2542068E0
:1028A00002F032FF616800292FD029239C460233B1
:1028B00000220127282698460020654693009B1891
:1028C000DB00E3185F5545469A55DA860132D2B2ED
:1028D00058559863D86318648A42EED300220020CA
:1028E00093009B18DB00E3181D006A35FF35287044
:1028F000013D2A7081330132E870FF33D2B21035C6
:102900002860686018608A42EAD323006A46103360
:1029100023CB23C203CB03C2A268E36861682068AB
:1029200002F0FCFE24230022E2540C4B0132E2545C
:10293000E3690025012B0CD0280006B080BCB84606
:10294000F0BDAA239B00C25406F01AF9A4E70125A2
:10295000F2E7200000F03AFFEEE7C046A9020000CF
:1029600070B5AA25AD00435D0400012B0BD00123F7
:102970004355006802F0BEFE206803F0F1FB00231F
:102980000020635570BD0220FCE7C046F0B5DE466E
:1029900057464E464546E0B5040085B0006803F052
:1029A000E7FB030400D5C3E0206803F0E1FB430527
:1029B00000D5A3E0206803F0DBFB430400D584E0EE
:1029C000206803F0D5FB830400D577E0206803F08E
:1029D000CFFBC30442D4206803F0CAFB03055AD4DA
:1029E000206803F0C5FB8022024220D044202368E7
:1029F000195A9143B82219529200A15C002900D0C3
:102A00006AE004254031585A28435852585A043530
:102A1000284358523F39A15454229A5A3C239208D1
:102A20001340B92292002000A35000F0E3FE20687A
:102A300003F09EFB830557D4206803F099FBC30580
:102A400005D544222168C4488B5A03408B5205B0F7
:102A5000F0BCBB46B246A946A046F0BD40230420C8
:102A60002268D15A8143D152D15A04308143D15284
:102A7000B8239B00E25C012A00D15BE2200006F053
:102A8000EFF844222068B549835A0B40835203F083
:102A90006FFB0305A4D5402208202368B04D995A46
:102AA000014399523C30195A29401952995A4038D9
:102AB00001439952200006F0C1F891E744222068B2
:102AC000A849835A0B40835281E744222068A649D3
:102AD000835A0B40835274E7200006F0AFF8206859
:102AE00003F046FB8305A7D5442221689F488B5AF3
:102AF00003408B52200006F087F89DE74422AA2568
:102B000021689B488B5AAD0003408B52200006F091
:102B100083F8635D012B00D14CE701230026635548
:102B20002333E6540021206803F012FB665541E789
:102B300044232568EB5A28001BB2002B00DB34E746
:102B400044239B460F225B461600C35A99B21E408F
:102B50001A425BD1CB0600D4D1E0028893B21205B1
:102B600000D546E11BB2002B07DB02005B46C35ACF
:102B70001BB2002BE6DB100017E703887D4A250017
:102B8000134080221343038050237B4AC15A94464A
:102B90001933FF33E35C6935DB00C3185B1863440A
:102BA0001B88FF359B059B0DEB610FD069690029E0
:102BB0000CD0EA8803F0F6FAEA696B69944663443C
:102BC000200000216B6106F005F8206803880200F0
:102BD0001B05CBD450236849C35A4118CB18296927
:102BE000002900D03BE21988644D294080251980D6
:102BF00019882D0229431980038861491940C0238F
:102C00009B014B405F490B430380AFE7B700C219FC
:102C1000138899B21BB28846002B28DB434602007A
:102C20001B06A3D5C5192B8857490B4057490B43A1
:102C30009BB22B802B23BD19ED006519EB5C022B99
:102C400000D1A7E000224023464647462A641E40A2
:102C50003B4200D121E1173BEB5C002B00D048E167
:102C60005033C25A283BEB5C494EDB001FE113880E
:102C700040490B4080210B43B919C90061181380EA
:102C80000B007533FF331B78002B00D0D6E0503398
:102C9000C55A0B00384A69339446FF331B78DB0072
:102CA000C3185B1963441B8800259B059A0D914648
:102CB000002B00D045E1B919C90063181800853010
:102CC000FF300268083852198260026852190260A7
:102CD0001A008132FF321268002A05D07933FF339F
:102CE0001B68AB4200D8AAE1BB19DB00E3186933CB
:102CF000FF332000197805F06DFF20688EE7038808
:102D0000214A0021134080221202134303805023E2
:102D1000C25A283BE35CDB00C3189B181C4A200006
:102D20009446E26B634494461B889B059B0D636449
:102D30006344E36305F05CFF2423E25C002A56D081
:102D4000216C002953D18026E55C20683543343E50
:102D500085530200E15409E7FFFEFFFFFFEFFFFF8D
:102D6000FFF7FFFFFFDFFFFFFFBFFFFFFFFDFFFFDD
:102D7000FFFBFFFF8F0F000006040000FF83FFFF33
:102D80008FBFFFFF808000000F8FFFFF0080FFFFDD
:102D900002040000802341465B00194089464146F9
:102DA000194200D0D9E0B03BC35ACF499C462823F2
:102DB000EF5C2A6CFB00C31863448C4663441B8899
:102DC0009B059B0D9A4200D841E1D21A2A6400D19A
:102DD0003FE1EA6B0136D218EA636A6CB1009446AF
:102DE00089196344C9006B64611802F08DFE206884
:102DF000BBE65023BD4AC15A1933FF339446E35C06
:102E00002200DB00C3185B18AC2163441B886932C5
:102E10009B059B0DFF328900D3616118D28803F0B6
:102E2000C1F92268B249138820000B4080210B436E
:102E3000138005F0C5FE2068020097E60B006C3396
:102E4000FF331B78022B00D114E10D006935FF35EB
:102E50002A789200914681444B46A64A1B8813402B
:102E6000A54A13434A4613802B789A008218128889
:102E700052044CD55022DB00825AC3189B189A4A40
:102E80000025944663441B889B059A0D9146002BB0
:102E900000D110E70B00713355E02923EB5C002BC8
:102EA00019D15033C25A283BEB5C904EDB00B4463C
:102EB0006044801818180388904A134003800388E0
:102EC000194389B2018028232000E95C05F090FEB7
:102ED000206802004AE6012BF5D184494F338C4625
:102EE000C25A283BEB5C6044DB0080181B181E8034
:102EF000E9E7012BE7D17C4E4F33B446C15A283B5A
:102F0000EB5C6044DB0040181B181A80DBE75022A2
:102F1000DB00825AC3189B18744A00259446634408
:102F20001B889B059A0D9146002B00D1C3E60B0030
:102F3000733308E0002200212000E25400F05AFC24
:102F40009CE50B006F337D31FF33FF311A88096830
:102F50004B4603F027F94D46ADE6402319408A461B
:102F600041460B4200D1CDE028211033C35A9A4686
:102F70006B5C0293DB009C465B4B99465346814455
:102F8000494663445B5A296C9B059B0D019399420A
:102F900000D846E1C91A296400D144E141464B04F6
:102FA0000BD5029B99008846804443461988514BB3
:102FB0001940534B1943434619804C239846B9197D
:102FC000C90061188844434602931B78012B00D046
:102FD000CCE0CB6B019A9A469046C2445346039389
:102FE000CB634B6C9A184A648B6C8A6B9A469342FB
:102FF00000D202E29B1A8B6493B201932921695C8F
:10300000002900D0EFE15031415A494461448946DA
:10301000002A00D032E20A88384B1A4080230A8006
:103020000A881B021A430A80BE19F200A218128EE7
:10303000019B039903F0A0F82068020096E0693133
:10304000FF312068611802F05FFD2068E6E54B461D
:103050002B642000390005F0CBFD206885E53E2972
:1030600000D991E001264D0831406D18AD02ADB296
:103070001D80C1E580234246DB011A40944642464A
:103080001A4200D18CE05023C55A0B006933FF333C
:103090001B7881310193DB00C3185B19124DFF319E
:1030A000AC460D686344AC461B889B059B0D9A4655
:1030B0001D009C4500D218E163465B1B0B6000D1EC
:1030C00015E141464B0608D5019B9A0082181188EC
:1030D000084B1940084B194311805346002B00D070
:1030E00099E00025E7E5C046020400000604000060
:1030F0008F0F00008F8FFFFFC0800000FF83FFFF56
:1031000080C0000028215023695CC35A0291C90085
:103110008946C8498C4684446146039149466344C4
:103120005B5A296C9B059B0D0193994200D2AFE03D
:10313000C91A296400D1ADE041464B040BD4029B6F
:1031400099008C46844463461988BB4B1940BB4B9D
:103150001943634619804C239C46B919C90061186C
:103160008C4463461B78012B00D102E12823EB5CE1
:10317000B34D9B00C3181988294030254D40B149F3
:10318000294389B21980F1E41F264D0931404E428E
:1031900071416D1AAC49AD02294389B219802BE502
:1031A0005023C55A0B006933FF331B7881310193DB
:1031B000DB00C3185B199F4DFF31A9460D684B44D6
:1031C000A9461B889B059B0D9A461D00994500D278
:1031D0009DE04B465B1B0B6000D19AE041464B06DD
:1031E00008D4019B9A0082181188934B1940974B81
:1031F000194311805346002B00D172E7B919C90059
:1032000061180A0073327D31FF32FF31128809687C
:1032100002F0C8FF4FE5B919C90061180A00713200
:10322000F1E700232B642923EB5C002B00D080E026
:1032300050339A46C35A864E4B4463441A883240F0
:103240001A801F88804A1743BFB21F805346C75A4F
:10325000784BC318DB196344188806401E80188811
:10326000024392B21A802000029905F0C1FC434645
:10327000206802005B0400D478E72823EB5C6E4EE4
:103280009B00C318198831406C4E314319806DE79B
:1032900053462B642923EB5C002B59D150339C46B9
:1032A000C25A6C4B6A4EC3189B184B441A88039938
:1032B00032401A801F88644A1743BFB21F8063469A
:1032C0008C46C35A63444B44188806401E801888B5
:1032D000024392B21A802000029905F089FC43460D
:1032E000206802005B04C8D540E700230B60019B07
:1032F00099008C46844463461988574B0B408021C3
:1033000089015940554B194363461980D9E66346F4
:103310000B60019B99008C468444634619884E4B90
:103320000B408021890159404C4B19436346198059
:1033300054E7012B97D150260022835B4B44634412
:103340001A803C4B865BC3189B1963441A808AE73A
:10335000012BC0D150263F4B825BC3189B18002223
:1033600003994B448C461A80835B63444B441A8018
:10337000B1E7CB6B019A9A469046C2445346CB6361
:103380004B6C9A184A648B6C8A6B9846934249D36B
:103390009B1A8B6493B201932921695C002936D171
:1033A000039B50319C46415A61448944002A00D015
:1033B00081E04B461A88264B1A404B461A801A88E1
:1033C00080231B021A434B461A80BE19F200A21832
:1033D000528E5146019B02F0CFFE20680200C5E6E6
:1033E00053469BB20193012900D01DE65022825A18
:1033F000019B4A446244138016E6002B30D15246AA
:10340000029B1A70019AF9E543469BB20193012988
:10341000DBD1039B50229C46825A019B62444A4462
:103420001380D2E7002B37D1424663461A70019AC7
:10343000B2E7C046060400008F8FFFFF80C0000087
:10344000BF8FFFFF8080FFFF0080FFFFC080000074
:10345000FF83FFFF020400008FBFFFFF808000009A
:103460000023029A13708B642933E95C0029B7D1D9
:103470005023C15A52464944614489463E2A28D8BD
:10348000012111408C46530863449B0249469BB27C
:103490000B8093B20193C7E5002362468B641370DF
:1034A0002933E95C0029AFD15023C15A039B42461E
:1034B0009C46614489443E2A1BD8012111408C4618
:1034C000530863449B0249469BB20B8093B201931D
:1034D0007BE71F21530911409A460B00594259417D
:1034E0000B005146CB1A9B029C466146084B0B438E
:1034F000CCE71F2111400B00594259410B005109E3
:10350000CB1A9B029C466146014B0B43DBE7C0464E
:103510000080FFFF70B5AA25AD00435D0400012BBC
:103520000AD0012343552333C154006802F010FE32
:1035300000230020635570BD0220FCE770B50C002D
:1035400049B20500002926DB07210C40A000001924
:10355000C00001000026281869316A30FF31FF30B1
:10356000691806700A614A780C70CB70002A00D086
:10357000CC81022B01D100230B71AA24A4002B5D66
:10358000012B12D001232B55286802F0D7F8002315
:1035900000202B5570BD07210C40661CB100891915
:1035A0000126C90041184E70DCE70220F2E7C04650
:1035B0000B004AB2072170B50B400400002A1ADB49
:1035C0009A00D218D20011006931FF3141188218D7
:1035D000AA2500206A32FF321070AD000B70635DC7
:1035E000012B15D001236355206802F0F9F900235F
:1035F0000020635570BD581C81000918AA250120C0
:10360000C900611848700B70AD00635D012BE9D1F2
:103610000220EFE770B5072421408C006418E40015
:1036200005192E007D36FF3632602A008132FF32C6
:103630001360002369355360FF35173A1370297002
:1036400021006931FF314118006802F05DFA002065
:1036500070BDC04607230B409900C918C900401827
:103660008530FF300068704770B5072421408C001A
:103670006418E40004192500E26301224C35236438
:103680002A70A364002363642933E254013BE154AC
:1036900001318B005918C9004118006802F034FA52
:1036A000002070BD0723426870B50B4004009342B0
:1036B0002FD84AB2002A1BDB8A005218D200110010
:1036C0006931FF314118821800206A32FF321070D0
:1036D000AA2501220B708A70AD00635D012B16D004
:1036E0006255206802F0CAFC00230020635570BDBB
:1036F000581C8100091801220120AA25C90061185F
:1037000048708A700B70AD00635D012BE8D1022018
:10371000EDE70120EBE7C0460F23426870B50B4090
:103720000400934233D84BB2002B1DDB07230B4020
:103730009A00D218D20011006931FF314118821865
:1037400000260020AA256A32FF321070AD008E706C
:103750000B70635D012B18D001236355206802F0C4
:10376000B3FC0020665570BD07230B40581C810038
:10377000091800260120AA25C900611848708E701A
:103780000B70AD00635D012BE6D10220EBE7012059
:10379000E9E7C04610B50C060CD5072421400131DD
:1037A0008C006118C9004018002A0BD10273C38035
:1037B000002010BD8C006118C9006931FF3140182C
:1037C000002AF3D0012283600273F1E7BA230121BA
:1037D0009B000268C1500021083BC15454230120C2
:1037E000D15A0143D152D15A01300143D152002064
:1037F0007047C0467047C046F0B5CE46474680B5D4
:10380000040083B0002800D1EDE00368DA072FD56B
:103810000C21C24842680A40042A00D105E14268EE
:103820001140082900D1F7E06368012B00D106E1BF
:10383000002B00D128E1052B00D12CE2B74BB84971
:103840001A680A401A601A68B6490A401A60FEF7F8
:10385000EBFC80260500B14FB60205E0FEF7E4FC64
:10386000401B642800D90DE13B683342F6D0236841
:103870009A0729D50C22A9494868024200D1ABE039
:1038800048680240082A00D19DE0E368A34D002B60
:1038900000D130E101222B68022713432B60FEF791
:1038A000C3FC060005E0FEF7BFFC801B022800D920
:1038B000E8E02B681F42F6D0F8212A6823698A4382
:1038C000DB0013432B6023681A072DD45A0744D515
:1038D00080220020914B5205D9698146114208D1BE
:1038E000D9691143D961DB691A400192019B012317
:1038F000994680278C4E7F0033683B4200D1A5E07B
:10390000A368012B00D115E1002B00D1D5E0052BD8
:1039100000D144E10121814B1A6A8A431A621A6A72
:1039200003318A431A6209E1E3697C4D002B60D0C0
:1039300001226B6A022713436B62FEF775FC0600D7
:1039400005E0FEF771FC801B022800D99AE06B6A43
:103950001F42F6D023685A07BAD4DB0612D5636932
:10396000012B00D141E1053300D0F9E00421F8201A
:103970006A4A536B8B435363516BA3698143DB00EA
:103980000B435363236A002B1BD00C22634D6968E1
:103990000A40082A00D10CE1022B00D143E12B6838
:1039A000624A802613402B60FEF73EFCB6040400FA
:1039B00004E0FEF739FC001B022863D82B68334271
:1039C000F7D1002010E04A68C02149020A40802156
:1039D00009028A4200D058E7504A1268920745D53A
:1039E000E268012A42D0012003B0C0BCB946B0460B
:1039F000F0BD01226B6A022793436B62FEF714FC51
:103A0000060004E0FEF710FC801B02283AD86B6A1F
:103A10001F42F7D123689EE7C021426849020A404D
:103A2000802149028A4200D0FEE63C4A1268920395
:103A300000D41DE76268002A00D019E7D3E780238D
:103A4000364A5B0211680B43136000E733683B435F
:103A50003360FEF7E9FB050004E0FEF7E5FB401BE1
:103A600064280FD833683B42F7D049E7F8252B4844
:103A700022690168D200A9430A4302601A0700D4F0
:103A800024E751E70320AFE7244D254A2B68802720
:103A900013402B602B68234ABF0213402B60FEF7B4
:103AA000C3FB060004E0FEF7BFFB801B6428E9D8D7
:103AB0002B683B42F7D12368DAE60122174E1C4DF2
:103AC000336A93433362336A033293433362FEF7BC
:103AD000ABFB02230700984604E0FEF7A5FBC01BE2
:103AE000A842CFD84246336A1A42F6D14B46012B40
:103AF0004ED0236831E701222B68022793432B60C5
:103B0000FEF792FB060004E0FEF78EFB801B022806
:103B1000B8D82B681F42F7D12368D5E600100240C1
:103B2000FFFFFEFFFFFFFBFF00700040FFFFFFFEF7
:103B3000881300005E490A6A13430B62FEF774FBA8
:103B40005B4B0600984602275A4D04E0FEF76CFBDB
:103B5000801BA84296D843461B6A1F42F6D0C5E791
:103B60000422534D02276B6B13436B636B6B033A59
:103B700093436B63FEF758FB060005E0FEF754FB2A
:103B8000801B022800D97DE76B6B1F42F6D1F9E656
:103B9000474A4949D3690B40D3612368DDE60421D4
:103BA000434B1A6A0A431A621A6A03390A431A62B1
:103BB000C4E7012B00D116E7C0236A68E96A656A89
:103BC0005B0201201340AB4200D00DE70F230B40F6
:103BD000E16A8B4200D007E7F02080030240A06A30
:103BE000101A431E9841C0B2FEE60421304D022750
:103BF0006A6B0A436A636A6B13436B63FEF714FBD9
:103C0000060005E0FEF710FB801B022800D939E70B
:103C10006B6B1F42F6D0F8216A6BA3698A43DB0005
:103C200013436B63AEE62B68244A802713402B6056
:103C3000FEF7FAFABF04060005E0FEF7F5FA801B6E
:103C4000022800D91EE72B683B42F6D10F22EB6A0F
:103C5000174E9343E26A1343EB62616AA36A6A6890
:103C60000B4317490A4013436B6080232A685B04A7
:103C700013432B60FEF7D8FA80250400AD0405E05D
:103C8000FEF7D2FA001B022800D9FBE633682B426C
:103C9000F6D00020A8E68022054BD20219680A431C
:103CA0001A608022196852020A431A60CFE5C046A2
:103CB0000010024088130000FFFFFFEFFFFFFFFE30
:103CC000FF7FC2FF70B588B06C462200104B23CB3B
:103CD00023C21B68136004AA11000E4B61CB61C1A3
:103CE0001B680B600C230C494D682B40082B02D03D
:103CF0000A4808B070BD0F26CB6A08483340D15C33
:103D0000FCF728FAAD0C3540635D5843F1E7C04637
:103D1000601E0108741E01080010024000127A00A3
:103D2000F8B5CE46474604000D0080B500280DD0FA
:103D300001233B490A681A40AA420CD20A689A43F6
:103D40002A430A600A681340AB4204D00120C0BC79
:103D5000B946B046F8BD23689A070ED55A0705D56F
:103D6000E0223049D200486802434A60F0202D49E1
:103D70004A688243A06802434A60DB0722D5294B88
:103D800062681B68012A46D0022A41D09B07DDD514
:103D90000321244E73688B4313437360FEF744FA88
:103DA0000C239846204B0700994604E0FEF73CFAA6
:103DB000C01B484532D8434672681A4063689B006E
:103DC0009A42F3D10121164A13680B40AB4205D940
:103DD00013688B43136013681942B7D123685B07DC
:103DE00006D5104A114953680B40E1680B435360F4
:103DF000FFF768FF0B4B0E4A5B681B061B0FD35C7B
:103E0000D8400C4B18600320FEF7CCF900209EE749
:103E10009B01BDD49AE79B03BAD497E7032096E7AA
:103E2000002002400010024088130000FFF8FFFF4E
:103E3000C023010840010020044B054A5B685B0574
:103E40005B0FD35C034A1068D840704700100240F3
:103E5000D023010840010020F0B5CE46474680B58A
:103E60000368040083B0DA0330D58022474B520543
:103E7000D969002711424AD08026454D76002B682B
:103E8000334252D0414DC0222B6A9200180010409C
:103E900013426CD061680A4082420ED08022286AA8
:103EA0002E6A520232432A622A6A3A4B3A4E034041
:103EB00032402A622B62C30748D4344A3548136A19
:103EC00003400B431362012F5AD02368DA0706D54B
:103ED00003202E490A6B8243A06802430A639A06B4
:103EE00006D5102029490A6B8243E06802430A6321
:103EF00000209B0306D58021244A136B8B43216944
:103F00000B43136303B0C0BCB946B046F0BD802676
:103F1000D9691F4D1143D961DB6976001A400192BE
:103F2000019B2B6801373342ACD12B6833432B60A4
:103F3000FEF77AF980462B683342A3D1FEF774F975
:103F40004346C01A6428F6D90320DBE7FEF76CF974
:103F500002239846114B0600994604E0FEF764F9E7
:103F6000801B4845F0D842462B6A1A42F6D0074AD1
:103F70000848136A616803400B431362012FA4D100
:103F8000D36907490B40D36123689FE700100240C3
:103F900000700040FFFCFFFFFFFFFEFF88130000E2
:103FA000FFFFFFEFF0B5DE4657464E464546E0B50B
:103FB00083B01E006B46DF1C0023150081460C00F9
:103FC0003B70FEF731F97619331A9846FEF72CF953
:103FD0004B461B68C0269A46354B83461A68F60046
:103FE00093009A18D3009B1A42461B0D5343524626
:103FF000019301E06B1C0BD1936823421DD0B442A6
:10400000F8D153461B7BDBB23B703B786B1CF3D083
:10401000FEF70AF95B46C01A404516D2019B5A1EAC
:10402000934142465B421A40019B9046013B0193FB
:104030004B461A6893682342E1D1002003B0F0BCDC
:10404000BB46B246A946A046F0BD4B46E0211B68E0
:104050005A688A4349465A6082224968520091420E
:1040600016D04A468021926A89018A4208D05D238F
:1040700001224946CA540022013B0320CA54DDE70D
:1040800019680C480140196019680A431A60EEE784
:104090004A468021926809028A4203D08021C900E1
:1040A0008A42DED140211A688A431A60D9E7C046A5
:1040B00040010020FFDFFFFFF0B5C64600B50C0051
:1040C000160082B00700FEF7AFF83619361AFEF771
:1040D000ABF880258046274B1B685B011B0D7343A3
:1040E00001933A6801E0631C07D193681D42FAD13D
:1040F000002002B080BCB846F0BDFEF795F84346FC
:10410000C01AB04208D2019B5A1E93415B421E4026
:10411000019B013B0193E4E7E0213B685A688A4335
:104120005A60822279685200914214D08021BA6A82
:1041300089018A4207D05D230122FA540022013B03
:104140000320FA54D5E719680B4801401960196833
:104150000A431A60EFE78021BA6809028A4203D055
:104160008021C9008A42E1D140211A688A431A603D
:10417000DCE7C04640010020FFDFFFFFF8B58223E7
:104180001700426804000E005B009A420DD03A000E
:1041900031002000FFF790FF051E1BD182236268CB
:1041A0005B009A421CD02800F8BD8022836812026E
:1041B000934203D08022D2009342E8D1402122686A
:1041C000200013688B43136031003A00FFF774FF3F
:1041D000051EE3D02022236E032513432366E2E766
:1041E0008022A3681202934203D08022D20093421D
:1041F000D9D1C0213B0032002000C900FFF7D2FE18
:104200000028D0D0E6E7C04670B513000D001600B8
:104210000A00C02149010400FFF7C4FE00280FD1A5
:10422000320029002000FFF747FF002808D1C021F5
:1042300033002A002000C900FFF7B4FE002804D094
:1042400020220320236E1343236670BDF0B5D646AB
:104250004F4646460400C0B5002800D18EE0456AAE
:10426000002D65D00023036143610023A3625D3309
:10427000E35CDAB2002B68D05D2302224021E254D5
:104280002268E06813688B431360E023DB009842E8
:1042900062D9F0231B01984200D071E08023A16A0B
:1042A0009B01194000238C469A46822366685B0076
:1042B00033408426A76836023E40334302262769EE
:1042C000A1693E40334301266769B14637403B430D
:1042D0008027BF000F403B433827E669090C374071
:1042E00080263B433700266A374066463B433343CC
:1042F00013600823666B57463340F0263601304082
:10430000184304231940084310210D4005432F434F
:104310005760D3691C4900200B40D36100234A46F3
:1043200023665D33E254E0BCBA46B146A846F0BD10
:10433000822342685B009A4297D00023C561A36242
:104340005D33E35CDAB2002B96D15C332000E2549B
:1043500004F0BEF9656A8FE7984206D080235B01BE
:104360009A4600239C46A3629FE78023A16A9B0193
:10437000194080235B018C469A4696E70120D2E7DC
:1043800000239A46EDE7C046FFF7FFFFF0B5C646AB
:104390001D005C2300B59046C25C04000F0082B093
:1043A000012A5ED00122C254FDF73EFF5D22A35CCC
:1043B0000600D8B2012B0AD002205D230122E2546C
:1043C0000022013BE25402B080BCB846F0BD002F91
:1043D000F3D04346002BF0D00323A35400234246DE
:1043E0002366A287E28744222364A763A352023292
:1043F000A3522365E3648023A26820681B029A42CB
:1044000056D040230268134202D10268134303606E
:10441000E023E268DB009A4225D96368002B51D083
:104420004346012B4ED0E38F0227002B0DD164E0D1
:10443000A36B1A880233C260E18FA363013989B28A
:10444000E187E38F002B58D0206883681F42EFD1AB
:10445000FDF7EAFE801BA8424BD36B1CF1D0032072
:10446000ABE70220AFE76368002B34D04346012B53
:1044700031D0E38F0227002B0DD13EE0A26B1278E2
:104480001A73E18FA36B0139013389B2A363E1870A
:10449000E38F002B31D023689A681742EED1FDF7E5
:1044A000C3FE801BA84220D36B1CF1D0032084E7FD
:1044B000402203689343036080230268DB011343B7
:1044C00003609EE73B880237C360E38FA763013B2D
:1044D0009BB2E387A7E73B780373A36B0133A36326
:1044E000E38F013B9BB2E387C3E7002DD0D10320CC
:1044F00063E7002DA5D103205FE7320029002000EB
:10450000FFF782FE002801D020232366A368002B3A
:1045100006D101932368DA6801929B680193019B9D
:10452000206E431E9841C0B247E7C046F8B54746E3
:10453000CE4680B51F005C239146C25C04008846CD
:10454000089D012A00D196E00122C254FDF76CFEBD
:104550005D23E35C06006268D9B2012B13D082238D
:1045600002205B009A4209D05D230122E25400221E
:10457000013BE254C0BCB946B046F8BDA368002B6D
:10458000F2D10429F0D14346002B76D04B46002BC4
:1045900073D0002F71D05D23E15C042901D0052187
:1045A000E1544946002321644621236667520239BB
:1045B00067524146E3642365E023A163E168E7872E
:1045C000A787DB0099425AD923686548596801409A
:1045D000596040211868014202D1186801431960EE
:1045E000002A00D0B7E042461288DA604346991CA0
:1045F000E38FA163013B9BB2E3870123994601331B
:1046000046279846E38F002B03D1E35B002B00D1B4
:1046100092E0414623689A68114210D0E28F002A46
:104620000DD04A46012A0AD1A26B11880232D96004
:10463000A263E28F013A92B2E28700229146012101
:1046400008009A68104011420CD0E25B002A09D0A1
:104650008146DA68236C1A8002332364E35B013BF2
:104660009BB2E353FDF7E0FD801BA842CAD36B1C4D
:10467000C8D0032078E702207CE7012074E780217E
:104680002368490158680143596040211868014274
:1046900002D1186801431960002A59D142461278A4
:1046A0001A73A36B0133A363E38F013B9BB2E387D0
:1046B00001239946013346279846E38F002B02D108
:1046C000E35B002B38D0414623689A68114212D030
:1046D000E28F002A0FD04A46012A0CD1A26B127831
:1046E0001A7300229146A36B0133A363E38F013B4E
:1046F0009BB2E3872368012108009A6810401142A9
:104700000DD0E25B002A0AD081461B7B226C13701D
:10471000236C01332364E35B013B9BB2E353FDF75E
:1047200083FD801BA84203D36B1CC6D003201BE76C
:10473000002DC2D1032017E7320029002000FFF727
:1047400063FD002800D10FE72023012023660BE73B
:10475000012FADD1A2E7012F00D04EE743E7C046BD
:10476000FFEFFFFFF0B5C6461D00822300B516001F
:1047700042680400884682B05B009A4200D171E032
:104780005C23E25C012A00D179E00122E254FDF7CA
:104790004BFD5D22A35C0700D8B2012B0AD002209A
:1047A0005D230122E2540022013BE25402B080BCAE
:1047B000B846F0BD4346002BF2D0002EF0D00423C3
:1047C000A35442460023226444222366A6520232A6
:1047D000A652E022A363A387E387E3642365E3682B
:1047E0002168D20093425ED94A68454802404A6037
:1047F0008022A0681202904207D140200A688243BA
:104800000A600A683F4802400A6040220868024283
:1048100002D1086802430A60E022D200934248D9DC
:1048200046230122E35A90464626002B0DD12CE068
:10483000CA68236C1A8002332364A15B013989B2F0
:10484000A153A35B002B20D0216842468B681A42FB
:10485000EED1FDF7E9FCC01BA84212D36B1CF0D0CF
:1048600003209DE78368002B00D089E704225D3395
:10487000C25433000A000095FFF758FE96E7022065
:1048800094E7002DDDD103208AE73A0029002000BB
:10489000FFF774FC002801D020232366206E431EFE
:1048A0009841C0B27CE780224868520102434A60C6
:1048B0009EE74623E35A002BE7D00123462698467D
:1048C0000DE00B7B226C1370236C01332364A35B1C
:1048D000013B9BB2A353A35B002BD6D02168424679
:1048E0008B681A42EDD1FDF79FFCC01BA84203D391
:1048F0006B1CF0D0032053E7002DECD103204FE7D1
:10490000FFEFFFFFFFBFFFFF3D22815C030001209F
:10491000012912D1013199541B68DA680243DA6027
:104920000D4A93420AD00D4A934207D00C4A934253
:1049300004D01A6810431860002070470722996855
:104940000A40062A05D001211A6800200A431A608D
:10495000F3E70020F1E7C046002C014000040040CE
:10496000004001400121036810B5DA688A43DA602B
:104970001C6A074A144206D11C6A064A144202D134
:104980001A688A431A603D230122C254002010BDD8
:1049900011110000440400007047C0467047C04633
:1049A0007047C0467047C0460222036810B51969B7
:1049B00004000A4202D0D9680A4265D1042219696A
:1049C0000A4202D0D9680A424BD1082219690A4228
:1049D00002D0D9680A4233D1102219690A4202D0A2
:1049E000D9680A421CD1012219690A4202D0D96849
:1049F0000A425CD1802219690A4202D0D9680A426F
:104A00005CD1402219690A4202D0D9680A425DD1BC
:104A1000202219690A4202D0D9680A4241D110BD48
:104A2000213A1A6119322277DA69C0239B002000EB
:104A30001A425ED0FFF7B2FF002323772368D2E744
:104A4000113A1A610D322277DB6920009B074DD1A4
:104A5000FFF7A2FF2000FFF7A3FF002323772368BF
:104A6000BAE7093A1A61073222779A69C0239B0094
:104A700020001A4237D1FFF78FFF2000FFF790FF89
:104A8000002323772368A0E7053A1A6104320277EE
:104A90009B699B0721D0FFF781FF002323772368C1
:104AA0008CE7413A20001A6100F0A0F8B7E7033A1A
:104AB0001A61200003F0C4FA23689BE7023AFF3A28
:104AC0001A61200000F094F823689AE7813A1A618D
:104AD0002000FFF767FF23689AE7FFF75DFF2000DC
:104AE000FFF75EFFD9E7FFF759FFC9E7FFF756FF6A
:104AF000B3E7FFF751FF2000FFF752FF9CE7C046E6
:104B00001D4A0368904223D01C4A904217D01C4A89
:104B1000904218D01B4A90421ED01B4A90421BD094
:104B20001A4A904218D0802293434A691343036083
:104B30008B68C3620B6883620123436170477022F4
:104B400093434A681343124A1340CA681343EAE77F
:104B5000702293434A6813430D4A1340CA681343B3
:104B6000802293434A69134303608B68C3620B68D6
:104B700083620B690363DFE7002C014000040040FF
:104B80000020004000400140004401400048014036
:104B9000FFFCFFFF70B5041E26D03D23C35CDAB2D4
:104BA000002B1CD002233D252100635501C9FFF7CE
:104BB000A7FF012346220020A354083AA354013240
:104BC000A3540132A3540132A3540132A35401323D
:104BD000A3540132A3540132A354635570BD3C3336
:104BE000C25403F0A7FDDDE70120F7E77047C04698
:104BF0007047C04610B5EFF3108C012282F3108885
:104C00000168124C0B6823400B608CF31088EFF3A3
:104C1000108C82F3108801688B6893438B608CF34F
:104C20001088036E012B0BD1EFF3108183F31088F2
:104C3000026832341368FF34A343136081F3108891
:104C40002023C36700230366436610BDDFFEFFFF1A
:104C5000836F10B5212B00D010BD3133C25A002A0A
:104C600017D1EFF3108C013282F310888024016891
:104C70000B68A3430B608CF31088EFF3108182F371
:104C800010880268402013680343136081F3108882
:104C9000E2E7C16C04680A880231D205D20D228590
:104CA000C164C25A013A92B2C252D5E7836F10B5BD
:104CB000212B00D010BD3133C25A002A17D1EFF397
:104CC000108C013282F31088802401680B68A343A2
:104CD0000B608CF31088EFF3108182F31088026868
:104CE000402013680343136081F31088E2E7C26C2D
:104CF0000468117801322185C264C25A013A92B225
:104D0000C252D7E7836F10B5202B33D100292FD0A3
:104D1000002A2DD0802384685B019C4220D074231C
:104D2000C35C012B26D05023C164C2520233C2524D
:104D300000222E33C2505F3B8367174B83660022ED
:104D40007423C254EFF31081733B83F3108802681D
:104D5000802013680343136081F31088002010BD86
:104D60000369002BDBD101331C000C40194203D036
:104D70000120F4E70220F2E77423C35C012BF9D091
:104D80005023C164C2520233C2522E33C4505F3B1F
:104D90008367024BD2E7C046AD4C0008514C000877
:104DA0007047C0467047C04600235A2210B5406A7B
:104DB0008352083A8352FFF7F5FF10BD7047C04693
:104DC000F8B5CE46474602680400D369A848116882
:104DD00080B59568034200D074E02020184202D0CC
:104DE000084200D0E3E0206E012814D080221A424D
:104DF00009D140221A4202D00A4200D0DCE0C0BCF5
:104E0000B946B046F8BD0A42F3D0A36E002BF6D0E7
:104E100020009847F3E710251D42E7D00D42E5D06A
:104E200040231E00156292681640134200D1E1E053
:104E3000266F3268526892B2002AE0D05821884624
:104E4000615A9142DBD95A27E253B269202A31D004
:104E5000EFF3108680F310882168864F0A683A4085
:104E60000A6086F31088EFF3108680F310882168BB
:104E70008A6882438A6086F31088EFF3108680F395
:104E8000108821688A689A438A6086F31088203BDC
:104E9000E36700232366EFF3108180F31088226814
:104EA0001368AB43136081F31088206FFDF72CFA71
:104EB0004346E15A5A23E35A2000C91A89B2FFF740
:104EC0007DFF9CE701266C4835400840284300D10F
:104ED00089E71E4206D0C80504D580271662E0592E
:104EE0000643E651022018425CD0002D0ED08027E8
:104EF00004261062E0593043E0511E4206D00420DF
:104F0000802602271062A0593843A05108261E426D
:104F100008D020200840054304D08025166260593F
:104F20000643665180200001034207D04D0105D59C
:104F3000802520261062605930436051802020581F
:104F4000002800D15BE72020184201D008424AD156
:104F5000802640272823A15995680B403D4020001A
:104F60001D4300D180E0FFF745FE23689B681F4288
:104F700035D0EFF31081012383F310882268936802
:104F8000BB43936081F31088206F002827D03B4BF0
:104F90004363FDF7D9F9002800D130E7206F436B58
:104FA00098472CE75807B1D5002DA8D1AEE7636E1E
:104FB000002B00D02CE722E7EFF31080012383F3CE
:104FC000108821680B6893430B6080F310882023BE
:104FD000A36700232000A366FFF7E2FE0FE720008F
:104FE000FFF7E0FE0BE7636E002BB1D0200098477F
:104FF0002268ADE75A22A35AA25A9BB2002A00D1D6
:10500000FDE65822A15AC91A89B2002900D1F6E654
:10501000EFF3108780F31088236899461B68984641
:105020004246174B1A4013004A46136087F3108814
:10503000EFF3108780F310882268936883439360AE
:1050400087F3108820236666E3672666EFF31086F1
:1050500080F3108822681368AB43136086F31088CE
:105060002000FFF7ABFECAE6FFF79CFEA551C6E69F
:105070000F080000FFFEFFFF20010004A94D0008FB
:10508000DFFEFFFFC36F70B5222B05D00821026839
:1050900093690B43936170BD5C220368825A9B8CB9
:1050A0001340426D13705A22436D01334365835A96
:1050B000013B9BB28352835A99B2002BEBD1EFF3A1
:1050C000108C593A82F310880468174D23682B40DE
:1050D00023608CF31088EFF3108C82F3108804683F
:1050E000A3689343A3608CF310882023C367036EE7
:1050F0004166012B15D10166EFF3108483F310880C
:1051000001680F320B6893430B6084F310880368C7
:10511000D9690A4200D01A625823C15AFFF74EFEDD
:10512000B9E704F045F8B6E7DFFEFFFFC36F70B5DF
:10513000222B05D00821026893690B43936170BD4F
:105140005C220368825A998C436D0A401A805A2265
:1051500002334365835A013B9BB28352835A99B20F
:10516000002BECD1EFF3108C593A82F310880468CD
:10517000174D23682B4023608CF31088EFF3108CBD
:1051800082F310880468A3689343A3608CF31088AB
:105190002023C367036E4166012B15D10166EFF32F
:1051A000108483F3108801680F320B6893430B60FF
:1051B00084F310880368D9690A4200D01A62582320
:1051C000C15AFFF7FBFDBAE703F0F2FFB7E7C046AD
:1051D000DFFEFFFF70B504002569A36822682B433A
:1051E00065691168C0692B43424D034329400B4355
:1051F000136053684049256A0B40E1680B435360D4
:10520000A36991682B433D4D29400B4393603C4B70
:105210009A420DD03B4B9A4211D03B4B9A420ED052
:105220003A4B9A420BD0012000236366A36670BDFF
:10523000374B1A6B03231340013B022B32D98023D7
:105240001B02984214D0FEF7F7FD00280ED06368C9
:1052500061685B081818FAF77DFF0004000C020073
:105260002C4B103A9A42DED82368D8600020DBE746
:10527000FEF7E2FD0028F9D04000636861685B0832
:105280001818FAF767FF03041A0C2249103A8A42E9
:10529000C9D8214A1B0310405B0F22681843D06015
:1052A0000020C1E71D4AD25C80231B0298420FD028
:1052B000042A0AD005D8002AC5D0022AB3D118483A
:1052C000C5E71800082AC2D0ADE7FEF7FBFCBCE733
:1052D000042A0BD005D8002ACAD0022AA3D111482B
:1052E000CBE780204002082AC7D09CE7FEF7EAFC03
:1052F000C0E7C046F369FFEFFFCFFFFFFFF4FFFFFA
:10530000003801400044004000480040004C00408C
:1053100000100240EFFF0000F0FF0000881E0108AF
:1053200000127A000024F400436A30B5DA0706D58B
:105330000168284C4A682240846A22434A609A07DE
:1053400006D50168244C4A682240C46A22434A6058
:105350005A0706D50168214C4A682240046B224353
:105360004A601A0706D501681D4C4A682240446B02
:1053700022434A60DA0606D501681A4C8A68224040
:10538000846B22438A609A0606D50168164C8A68A7
:105390002240C46B22438A605A060AD50168134D25
:1053A0004A68046C2A4022434A6080225203944295
:1053B00009D01B0606D502680D4953680B40816C65
:1053C0000B43536030BD4A680A4C2240446C224370
:1053D0004A60EEE7FFFFFDFFFFFFFEFFFFFFFBFF61
:1053E000FF7FFFFFFFEFFFFFFFDFFFFFFFFFEFFF8D
:1053F000FFFFF7FFFFFF9FFFF8B557464E464546B4
:10540000DE46E0B51600042292468022120199463B
:1054100080460D0093460A9F036801E07A1C0DD177
:10542000DC692C40641B62425441B442F6D0002037
:10543000F0BCBB46B246A946A046F8BDFCF7F4FE58
:105440004B46C01AB84230D8002F2ED043465146A2
:105450001B681A681142E3D05946DA690A42DFD064
:105460001962EFF31080012282F310884346196815
:105470001F4C0B6823400B6080F31088EFF3108003
:1054800082F31088434619688B6893438B6080F3DE
:1054900010882023424641469367D36780228B5071
:1054A000002254330320CA54C2E7EFF310800122D4
:1054B00082F31088434619680D4C0B6823400B603B
:1054C00080F31088EFF3108082F310884346196848
:1054D0008B6893438B6080F31088202342464146BB
:1054E0009367D367002254330320CA54A0E7C04611
:1054F0005FFEFFFF8023002230B50400C25083B05E
:10550000FCF792FE236805001A6812070CD41B688A
:105510005B0718D420237422A367E36700230020CD
:105520002366A35403B030BD80210D4B00220093AD
:10553000890303002000FFF75FFF00280ED12368D6
:105540001B685B07E6D58021054B002200932000F5
:105550002B00C903FFF750FF0028DBD00320E1E751
:10556000FFFFFF0110B5041E26D0836F002B25D04E
:10557000242301212268A367136820008B43136052
:10558000FFF728FE012817D0636A002B10D123688B
:105590000D495A6820000A4008215A609A688A43D7
:1055A0009A601A6807390A431A60FFF7A3FF10BD13
:1055B0002000FFF7B9FEEAE70120F8E774228354E0
:1055C00003F0EEF8D4E7C046FFF7FFFF582341652C
:1055D000C2520233C25280210022836842664901CE
:1055E0008B4240D0002B33D0802149058B4241D0E3
:1055F0005C23C25280230022C2505E3BC367EFF39C
:10560000108C012181F31088026893680B4393602A
:105610008CF31088802382685B019A4213D0194B67
:10562000436600227423C254EFF31081733B83F36B
:105630001088026820331068FF330343136081F33E
:105640001088002070470369002BE8D10E4BE7E774
:105650000369002B03D15C23FF22C252CAE75C23FB
:105660007F22C252C6E70369002BF4D1074A5C339C
:10567000C252BFE70369002BF1D05C233F22C25224
:10568000B8E7C046855000082D510008FF01000012
:10569000C36F70B5202B2AD1002926D0002A24D030
:1056A000802384685B019C421AD07423C45C012C63
:1056B0001DD00124C4540023036603685B681B02E9
:1056C0000BD5EFF3108C84F3108880230468DB047F
:1056D00025682B4323608CF31088FFF777FF05E0E4
:1056E0000369002BE1D1CB07DFD5012070BD02207B
:1056F000FCE7C04644230022C252024A043BC25285
:105700000020704780BFFFFF4022835A02490B40B0
:10571000835200207047C0467F40000084B0029250
:105720000393402201238352002383520432835285
:105730000C3283520191002004B07047F0B5CE4680
:10574000474680B50A7805009300C3181C88964820
:10575000CE780440022E00D101E100D98CE0002E69
:1057600000D1E3E08020C00004439048904F044300
:10577000A4B21C801C883C401443204380B2188093
:10578000087B002853D000201C888A4F3C408A4F59
:105790003C431C805024D20094468022A046D20074
:1057A000914642462C5B0F89AC4464447F084C44CC
:1057B0007F002780AA5A814C6244A4464C896244E7
:1057C0006408640014804A78002A00D08AE01A88AD
:1057D000520405D51A8876490A4079490A431A8045
:1057E0001A88520600D5A5E01A887649764C1140F1
:1057F000C02292014A406D490A4392B21A801A8827
:105800002240114389B21980C0BCB946B046F0BDF0
:105810006648674F0443A4B21C801C883C40144374
:10582000204380B218800C7B0120002CACD14C7836
:10583000002C27D05024D2002C5BAD188022D2003F
:105840009446CA886544520852002D192A801A8845
:10585000520605D51A8856490A405C490A431A80FF
:105860001A8859490A40012E38D0202151404F4A08
:105870000A4392B21A80C7E7032EC9D1C020C000E4
:10588000044372E750274D4EEC5BB446D200CE88FD
:10589000AA18A4187608644476002680EC5B09698F
:1058A000A2184B4CA446624400294AD03E296ED827
:1058B00001254C0829406418A402A4B214801A8857
:1058C000520405D51A883A490A403D490A431A80CC
:1058D0001A883C491140C02292014A4036490A4385
:1058E0001A8091E71A88520405D51A8830490A406F
:1058F00033490A431A801A88520605D51A882C495A
:105900000A4032490A431A801A882F490A40012E58
:1059100021D020215140254A0A4392B21A801A8888
:1059200028490A4024490A431A806DE780208000F4
:1059300004431AE71A881E490A4024490A431A8078
:1059400052E71188234C21408024118011882402C1
:1059500021431180B3E718490A431A80DFE7134F48
:1059600013483C43A4B21C801C8884460440144362
:105970002743BFB21F80087B002800D157E7644649
:1059800018882040144C20431880002002E71F256F
:105990004C0929404D426941641A1049A40221432F
:1059A00089B211808BE7C0468F89FFFF8080FFFF9F
:1059B0008F8FFFFF8F8EFFFF8080000004040000A8
:1059C00080C000008FBFFFFFBF8FFFFFC0800000BF
:1059D00006040000FF83FFFF808100000080FFFFBE
:1059E0000B7B002B12D14B78002B00D163E00B789E
:1059F0009B00C01803885B0600D56FE003883B4A14
:105A000013403B4A13430380002070474B78002B20
:105A100028D10B789B00C01803885B0405D5038848
:105A2000344A1340344A1343038003885B0605D588
:105A30000388304A1340314A1343038003882D4AB8
:105A40002A4913402D4A1343038003882C4A1340EC
:105A50002C4A13439BB2038003880B401A4392B233
:105A60000280D1E70B789B00C01803885B0405D542
:105A70000388204A1340204A1343038003885B06AF
:105A800005D503881B4A13401C4A1343038003882F
:105A9000184A1B491340184A134303800388134ACA
:105AA0001340184A13439BB2038003880B401A43E8
:105AB00092B20280A8E70B789B00C01803885B04B1
:105AC00005D503880B4A13400B4A13430380038810
:105AD0000B4A1340064A1343038095E70388054A9F
