:020000040800F2
:100000000040002055AF000821780008257800083E
:1000100000000000000000000000000000000000E0
:100020000000000000000000000000002978000827
:1000300000000000000000002D7800083178000862
:10004000A5AF000800000000A5AF0008A5AF00089C
:10005000A5AF0008A5AF0008A5AF0008A5AF000830
:1000600000000000A5AF0008A5AF0008A5AF00087C
:10007000A5AF0008A5AF0008A5AF0008000000006C
:10008000A5AF00083978000849780008A5AF000836
:10009000A5AF0008A5AF0008A5AF0008A5AF0008F0
:1000A000A5AF0008A5AF0008A5AF0008A5AF0008E0
:1000B000A5AF000859780008000000006978000822
:1000C00010B5064C2378002B07D1054B002B02D02E
:1000D000044800E000BF0123237010BD700300201E
:1000E0000000000090FF0008044B10B5002B03D067
:1000F0000349044800E000BF10BDC04600000000F6
:100100007403002090FF000802780B78002A03D0C7
:10011000013001319A42F7D0D01A70470023C25CF7
:100120000133002AFBD1581E7047000002B471460B
:1001300049084900095C49008E4402BC7047C0462A
:10014000002243088B4274D303098B425FD3030A16
:100150008B4244D3030B8B4228D3030C8B420DD329
:10016000FF22090212BA030C8B4202D312120902B7
:1001700065D0030B8B4219D300E0090AC30B8B42F5
:1001800001D3CB03C01A5241830B8B4201D38B03A3
:10019000C01A5241430B8B4201D34B03C01A524148
:1001A000030B8B4201D30B03C01A5241C30A8B428B
:1001B00001D3CB02C01A5241830A8B4201D38B0276
:1001C000C01A5241430A8B4201D34B02C01A52411A
:1001D000030A8B4201D30B02C01A5241CDD2C3098C
:1001E0008B4201D3CB01C01A524183098B4201D308
:1001F0008B01C01A524143098B4201D34B01C01AF3
:10020000524103098B4201D30B01C01A5241C3086A
:100210008B4201D3CB00C01A524183088B4201D3D9
:100220008B00C01A524143088B4201D34B00C01AC5
:100230005241411A00D20146524110467047FFE731
:1002400001B5002000F0F0F802BDC0460029F7D04B
:1002500076E7704703460B437FD4002243088B4266
:1002600074D303098B425FD3030A8B4244D3030B3D
:100270008B4228D3030C8B420DD3FF22090212BA02
:10028000030C8B4202D31212090265D0030B8B427E
:1002900019D300E0090AC30B8B4201D3CB03C01A68
:1002A0005241830B8B4201D38B03C01A5241430B43
:1002B0008B4201D34B03C01A5241030B8B4201D333
:1002C0000B03C01A5241C30A8B4201D3CB02C01A9E
:1002D0005241830A8B4201D38B02C01A5241430A16
:1002E0008B4201D34B02C01A5241030A8B4201D305
:1002F0000B02C01A5241CDD2C3098B4201D3CB01AC
:10030000C01A524183098B4201D38B01C01A52415A
:1003100043098B4201D34B01C01A524103098B425E
:1003200001D30B01C01A5241C3088B4201D3CB0049
:10033000C01A524183088B4201D38B00C01A52412C
:1003400043088B4201D34B00C01A5241411A00D2DC
:1003500001465241104670475DE0CA0F00D0494245
:10036000031000D34042534000229C4603098B42B5
:100370002DD3030A8B4212D3FC22890112BA030A3D
:100380008B420CD3890192118B4208D389019211BF
:100390008B4204D389013AD0921100E08909C30944
:1003A0008B4201D3CB01C01A524183098B4201D346
:1003B0008B01C01A524143098B4201D34B01C01A31
:1003C000524103098B4201D30B01C01A5241C308A9
:1003D0008B4201D3CB00C01A524183088B4201D318
:1003E0008B00C01A5241D9D243088B4201D34B0033
:1003F000C01A5241411A00D20146634652415B1075
:10040000104601D34042002B00D549427047634655
:100410005B1000D3404201B5002000F005F802BD9A
:100420000029F8D016E770477047C0468446101C74
:1004300062468C46191C634600E0C0461FB500F0BA
:1004400033FF002801D40021C8421FBD10B500F0C1
:100450008DFE4042013010BD10B500F025FF002890
:1004600001DB002010BD012010BDC04610B500F01A
:100470001BFF002801DD002010BD012010BDC0467B
:1004800010B500F0ADFE002801DC002010BD0120F9
:1004900010BDC04610B500F0A3FE002801DA002010
:1004A00010BD012010BDC04670B500220C4B0400E9
:1004B0000D00FFF7EFFF002804D12000290001F014
:1004C0000BFD70BD064B00222000290001F0CEF983
:1004D00001F002FD80231B069C466044F1E7C04604
:1004E0000000E041F8B54546DE4657464E460C034F
:1004F000E0B54E00C90F88460D00610A440F0C4359
:10050000C70019035800DB0F9B464B0A510F0B43E2
:10051000760D400D1900D200D84500D1AEE0351A55
:10052000002D00DCF6E000280FD1134300D1DBE002
:100530006B1E002B00D037E1BA1A9742BF41641AF4
:100540007F42E41B0126170024E0C64B9E424DD09B
:1005500080231B041943382D00DD07E11F2D00DD2A
:1005600038E12020431B9A460B00504683409946B1
:1005700013004846EB401843030050468240501E8B
:100580008241E9401A43BA1A611A9742A4411700FE
:1005900064420C1B230262D56402650A002D00D15F
:1005A000DFE0280001F046FD0300083B1F2B00DDC3
:1005B000D2E020223C00D21A9D40D4409F402543E7
:1005C0009E4200DDC4E09E1B731C1F2B00DDF1E08A
:1005D000202238002900D21AD840914097402C00A0
:1005E0000143781E8741DC4000260F437B0709D07A
:1005F0000F233B40042B05D03B1DBB42BF417F4234
:10060000E4191F0023022CD5964B01369E4200D1DF
:100610009AE04546944BFF081C406007760564024B
:100620000743240B760D00212403230B0C0D8F4A66
:1006300024051C431440330523435B00ED075B088E
:100640002B43380019003CBC90469946A246AB4665
:10065000F8BD6446044300D111E2040067467B07FD
:10066000C6D145466007FF080743E4087D4B9E421C
:1006700030D024037605240B760DD4E7331A9A463E
:10068000002B78DD002831D076488642AED080201D
:10069000000401435346382B00DCE9E00A43511EB5
:1006A0008A410021D219BA42BF4109197C42170080
:1006B0000C192302D3D56B4B01369E4200D13AE18F
:1006C0000120694B1C407B0807401F43E00707439C
:1006D00064088BE723003B4300D1CBE18022120367
:1006E00014432403240B9EE72E007FE708001043E9
:1006F00000D1B4E0581E002800D0DEE0BA18BA429B
:100700009B4164185B42E418170001262302A6D51A
:100710000226D5E7002D6ED1701C4005400D012842
:1007200000DCF9E0B81A844687428041E51A40426D
:100730002D1A280200D489E0D71BBA4292411C1B13
:100740005242A51AD84629E74546002400276AE701
:10075000454CF61A2C4049E73D00283885400027D3
:100760002EE7380001F066FC20301DE70A43511ED9
:100770008A41002107E7002B00D0F3E0701C4305FD
:100780005B0D012B00DCADE0364B984200D1D1E08F
:10079000BA18BA42BF4164187F42E419E707520809
:1007A00017436408060021E72E48854200D193E0F4
:1007B0001D00D0E629001F3EF140202B00D18DE026
:1007C0004022D31A9D402F437D1EAF4100240F438A
:1007D000002644E72B000800203BD8400300202DD2
:1007E00000D17DE04020451BA9400A43511E8A41AB
:1007F00000211A43C7E6002E50D01A4EB04257D0FF
:1008000080266B429946360434434B46382B00DD34
:10081000D6E01F2B00DD35E12026F51A2600AE407C
:10082000B2463E00DE40AC46350056462E43654695
:10083000AF407D1EAF41DC403743D71BBA429241E7
:100840000C1B5242A41A0600D846A3E6644667462B
:100850002C4300D0A2E600250026002706E71E0054
:10086000C4E6C046FF070000FFFF7FFFFFFF0F80C9
:100870001F2B63DC2020C31A080098409C46834647
:1008800053461000D84003005846184363469A4028
:10089000531E9A4153460243D94003E726003E4384
:1008A00006D0EB439946002BC7D0944EB042ACD152
:1008B0000C0017000600D84698E6904B9A450BD0DE
:1008C0008246E7E6002800D09EE01800104300D1E1
:1008D000E9E01C001700D846884E87E6002572E73D
:1008E000002182E723003B43002E00D0ABE0002B29
:1008F00000D1E7E00B00134300D177E6BA18BA4203
:10090000BF4164187F42E419230200D4F2E07C4B1B
:1009100017001C40060069E620003843002ED1D1A4
:1009200000285BD11C00144300D1A8E01C00170074
:10093000D8465BE606000024002797E650460B00E9
:100940002038C34099465346202B00D195E04023E0
:1009500050461B1A99400A43511E8A414B460021BA
:100960001A439FE6002E30D126003E4367D0DB437A
:100970009A46002B1CD0614EB04260D05346382BB3
:1009800000DD96E01F2B00DD9FE02026F31A2600F5
:100990009E409C46B34653463E00DE4033005E46D2
:1009A0001E4363469F407B1E9F415346DC403743B6
:1009B000BF189742924164185242A418060078E684
:1009C00027437C1EA741002437E74C4EB04236D067
:1009D00080265B4236049A463443CFE71800104322
:1009E00000D103E6B81A84466745AD41E01A6D426E
:1009F000401B050200D42CE6D71BBA4292411C1BB7
:100A00005242A41AD846F1E51800104300D163E71A
:100A1000F808670707438020E4080003044208D071
:100A2000DD08054205D1D208590711430F002C00FB
:100A3000D8467B0FE4001C43FF00304ED6E50C0087
:100A400017000600D2E5002B38D00B00134300D16D
:100A500042E7F808670707438020E40800030442E0
:100A6000E7D0CB080342E4D1D208490711430F0075
:100A70001C00DEE700270024D5E500216BE70025F8
:100A80000027F3E54E462500203EF5404B462E005C
:100A9000202B2DD04025ED1AAC4027437C1EA741CA
:100AA00000243743C9E6802400252403134E002781
:100AB000DCE527437C1EA741002479E70C001700E2
:100AC0000E4E93E50C00170090E556462300203E9D
:100AD000F34099465346202B0ED0402356469B1B8D
:100AE0009C4027437C1EA7414B4600241F435FE7E1
:100AF0000024D2E71700B2E50024F2E7FF07000068
:100B0000FFFF7FFFF0B557464546DE464E46E0B54F
:100B10004C000E0387B0834692461D008046360B7C
:100B2000640DCF0F002C4FD06F4B9C4235D08023EB
:100B3000420F1B04F600134333439946C300984603
:100B40006A4B00269C460023644403932B031B0B33
:100B50009B466B00ED0F50465B0D01955ED0624ADF
:100B6000934253D05A46D1008022400F12040243D0
:100B70000A4393465246D1005C4A9446002263449D
:100B80003800684084460290E41A16430F2E00D9BC
:100B9000B4E0574BB6009B599F4603003343994638
:100BA0006CD100239846023308260393CEE7CB4648
:100BB0004146039A0197022A65D1019B4A4C9C4603
:100BC0000023002298466BE00300334399464ED041
:100BD000002E00D1BCE1300001F02CFA03000B3BE9
:100BE0001C2B00DDACE11D22D31A5A460100DA406D
:100BF00008398E401300334399465B468B40984634
:100C000000233C4C0026241A03939FE751465A4682
:100C1000114329D1002293460232B1E759460143DC
:100C20001ED05B46002B00D19EE1584601F002FA2F
:100C300003000B3B1C2B00DD8FE102005946083AF4
:100C400091408B461D21CB1A5146D9400B00594685
:100C50000B4351469B469140264B00221B1A8FE7BF
:100C6000002301229B468BE75146032288E700239D
:100C70009846013304260024039367E70323B14613
:100C800003930C2662E7032A00D15CE2019B012A50
:100C900000D0E4E113409C46002300240022984643
:100CA00000211203130B0A0D12051A432305124CDF
:100CB00040462240134362465B00D2075B08134361
:100CC000190007B03CBC90469946A246AB46F0BD21
:100CD000002380229C4612039846034CE0E7002341
:100CE000014C00229846DBE7FF07000001FCFFFFF4
:100CF000C8FF00080DFCFFFFFFFF0F80D94500D99A
:100D000039E100D134E1002346464D469A46013C84
:100D10005B460A0E1B021A430B02170C03931304C3
:100D20001B0C3900280090460193FFF709FA0200D6
:100D3000019B83465A43280039009146FFF786FA03
:100D4000350C09040D43A9450DD95B464544013BCB
:100D5000A84500D93AE1A94500D837E102235B4212
:100D60009C464544E3444B46EB1A39001800049373
:100D7000FFF7E6F9019B05004343390004989946C3
:100D8000FFF764FA330409041B0C0B43994509D996
:100D900043446A1E984500D91AE1994500D817E1E5
:100DA000023D43444A469B1A5A4612042A43039979
:100DB0009346100C0A0C914609045A46090C4E46FB
:100DC0000D001204120C45430591514372437043C8
:100DD00052190E0CB218954203D980256D02AC460B
:100DE0006044150C09041204090C28185218834297
:100DF00000D2CEE000D1C8E01D1A53469E1AB2457B
:100E000092415242AB1A9A46984500D117E13900F7
:100E10001800FFF795F9019B050043433900504640
:100E20000493FFF713FA04980B04310C194388421A
:100E300009D941446B1E884500D907E1884200D892
:100E400004E1023D4144049BCB1A1800390004938D
:100E5000FFF776F9019B82464343390004980193DA
:100E6000FFF7F4F901980B043104090C1943884287
:100E70000DD953464144013B884500D9E8E08842FA
:100E800000D8E5E002235B429C464144E244019BDA
:100E90002D04CE1A51462943059D4F462A000B04C6
:100EA000080C1B0C5A4345437B4378435B19170CD2
:100EB000FB189D4203D980256D02AC4660441D0C91
:100EC00012041B04120C28189B18864200D293E0CF
:100ED00000D18EE001231943A04BE318002B00DC66
:100EE00099E04A0700D09EE05A46D20106D55A46FC
:100EF0009B4B1A4080239346DB00E318994A9342A8
:100F000068DD0123029A984C1A40002394469846C3
:100F10000022C5E680224B46120313420AD05B46EC
:100F2000134206D11A431203120BAC4688468E4C6C
:100F3000B6E64B461A431203120BBC468A4CAFE688
:100F400003005A46283B9A4000239146984657E6AC
:100F5000584601F06FF8203040E603005246283B27
:100F60009A400021934677E601F064F820305FE66E
:100F7000884500D2C7E64B46DE075D0843465B085E
:100F80001E434346DB079A46C2E60025924500D33E
:100F900033E7039E5946B446E244B245AD416D4243
:100FA0004544EB180139984507D2984200D97FE0B3
:100FB00000D1BCE01D1A8B461FE79845FAD1039D6E
:100FC0005545F2D943468B461D1A16E79B46CAE69D
:100FD0001500E7E65A46C90852070A435B059046E2
:100FE0005C0D5A460123029952021940120B8C469D
:100FF00056E6002B00D16FE746444A1EB04529D97A
:101000001100864200D065E7039A934200D061E761
:1010100062E7012149420120C21A382A21DD029BE0
:1010200003409C4638E60F220A40042A00D15BE7C1
:101030000A00111D914292415242934454E7474B9A
:10104000E318002BE5DD01225242F2E71D00FAE62B
:101050009A461CE7B04239D86ED011003AE70293A5
:101060003AE71F2A3CDC20239B1A0C005846994083
:1010700098404B1E99415B46D440D34020430843DF
:101080001A00430709D00F230340042B05D00100A9
:10109000081D88429B415B42D21813023AD50123B6
:1010A000029A01241A400023944698460022F7E54C
:1010B000022149428C46039DE344AC46E244AA45E2
:1010C000AD416D424544ED182D1A96E68A1E0399EE
:1010D0004D008D42894149424144761803958FE77E
:1010E0001F204042C31A5846D8400300202A28D067
:1010F00040205D46821A954029434A1E914119437A
:10110000072300220B4009D00F2300220B400800C8
:10111000042BBDD1010053075202120BC908194319
:10112000012388460299002419408C46B8E55245AF
:10113000BED88B46002560E6039D9D42C6D31100B4
:1011400062E70025D8E780225B4612031A43019B21
:101150001203120B9C468846034CA1E5FF030000D6
:10116000FFFFFFFEFE070000FF070000F0B54F463F
:101170004646D6465C00C0B51F03DB0F9A46174BA8
:101180000E034D0084468046360B6D0DC90F914607
:101190003F0B640D01209D4208D09C4201D0A54226
:1011A0000BD01CBC90469946A246F0BD6346334323
:1011B000F7D1AC42F5D13A43F3D10120BE42F0D190
:1011C000C845EED1514507D0002DEAD163461E43F4
:1011D0003000461EB041E4E70020E2E7FF070000D0
:1011E000F0B54546DE4657464E46E0B51F033D0B7B
:1011F0002C4F0E034C00AB465D008446360B640D4D
:10120000C90F90466D0DDB0FBC422AD0254FBD4261
:101210002DD0002C0FD13043070081467842784111
:10122000C0B2002D17D15F463A4314D14B4600207F
:10123000002B0AD006E0002D02D15846024301D00F
:10124000994218D04842012108433CBC9046994637
:10125000A246AB46F0BD0028F2D00120013B184366
:10126000F3E737000743D1D002204042EDE75F4665
:101270001743CED0F8E7AC42E4DC03DA481E012184
:101280000843E2E75E45DDD806D000205E45DCD2AB
:101290000123481E1843D8E7C445D3D80020C445CD
:1012A000F6D3D2E7FF070000F0B54E464546DE46CE
:1012B00057465C00E0B51F03DB0F99462A4B0E032F
:1012C0004D00C90F8446360B6D0D8B4690463F0B83
:1012D000640D9D4220D0244B9C4222D0002D12D17F
:1012E000304343424341DBB2002C1FD0002B0CD0D3
:1012F0004B460120013B034318003CBC90469946F5
:10130000A246AB46F0BD002C16D0CB4517D05B46AD
:10131000594201230B43EFE7310002230143EBD194
:10132000D9E7390002231143E6D1D7E73A43DDD1AB
:1013300000230028E0D0EAE73A43E6D1E7E7A542F8
:10134000E5DC05DBBE42E2D807D00023BE42D3D2A3
:101350005946012301390B43CEE7C445D7D80023B2
:10136000C445F5D3C8E7C046FF070000F0B55746AF
:101370004546DE464E46E0B50C0398464E00230B2C
:1013800087B0070092469B46760DCD0F002E6BD09E
:101390006D4B9E4235D080245B46420F2404DB0017
:1013A00014431C43C3009946684BA3469C46002344
:1013B00000276644029343461C035A00DB0F504645
:1013C000240B520D984600D176E05F4B9A426DD0C7
:1013D0008023410F1B040B435C49E4008C461C43F3
:1013E000C300002062444146B6186940721C019156
:1013F000944607430F2F00D9B0E0554ABF00D25999
:1014000097465B460343994600D087E000239B46FE
:10141000023308270293CEE742460192022867D0A2
:10142000032800D10EE2012800D062E1002300244D
:101430000022994601990140CDB2002112030B0D03
:10144000120B1B051343434A240513401C4364003D
:10145000ED0764082C434846210007B03CBC904689
:101460009946A246AB46F0BD034399464FD05B4632
:10147000002B00D189E1584600F0DCFD03000B3B56
:101480001C2B00DD7AE11D22D31A3A0001005C46D4
:10149000DA4008398C4013008F4023439B46B946FD
:1014A00000232D4E0027361A029384E75346234328
:1014B0002AD10024022096E75346234320D0002C53
:1014C00000D157E1200000F0B5FD03000B3B1C2BC1
:1014D00000DD49E11D21CB1A51460200D940534697
:1014E000083A944093400C431B4A121A00207AE7B2
:1014F0000125019B144C1D400023002299469CE7C6
:101500000024002201206EE7534603206BE70023EE
:101510009B4601330427002602934CE703238146B0
:101520000C27029347E780220023002512039946E7
:10153000054C82E75C464B4602986FE75C464B469B
:10154000019502986AE7C046FF07000001FCFFFF13
:1015500008000108FFFF0F800DFCFFFF4A464946C7
:10156000170C1A0C1B041B0C08041900000C414337
:101570001500884619007D43794303958946290063
:10158000150045434D44029545462D0CAA46029D43
:101590005544A94506D98A46802149028946CA444C
:1015A00051460391290C0491414609042D04090C6C
:1015B00088462900250C24044144240C059121006F
:1015C00041438846210079438A4668434146504456
:1015D0008146080C48446F43824503D98021490263
:1015E00089464F44010C89463900494402914146DD
:1015F0000F0404993F0C88460004C01980444146FA
:10160000049159460F0C0904090C884659438A462F
:1016100039005143894641464A435146090C8B469D
:101620007B43D2185A44934203D980235B029B46E2
:10163000D94451460904090C8A46414661437C431A
:10164000130C12044B445244A1468A463C004146C6
:101650006C434D4351464D440F0C7D19A94503D9A8
:101660008021490288464444049F0399B846414476
:101670008B468345804141428846514608042F04E9
:10168000000C3F1858460299101889469042924122
:101690004F44BA46524299469346C244D144CB4441
:1016A0008F42BF41C245894199459B419345924133
:1016B0007F4249422D0C52420F435B4213437F1934
:1016C000FF185B463C19DB0D059A64021C4343027C
:1016D00013435D1EAB415A46C00D034352021343F0
:1016E000E20156D501205A0803401343E207134391
:1016F00064085A48604400284DDD5A0709D00F227B
:101700001A40042A05D01A1D9A429B415B42E418F4
:101710001300E20104D58020514AC0001440604407
:10172000504A904200DDE3E60125DB0862071A43D8
:101730006402019B9146220B4405640D1D407CE62A
:10174000802259461203114208D0144206D1224386
:101750001203120B45469946434C6EE65B461A430C
:101760001203120B404C68E603005446283B9C4091
:101770000023B9E600F05EFC2030A6E60300283B1B
:101780009F400023BB4699468AE600F053FC203078
:1017900074E6B446ADE701252A1A382A06DD019B16
:1017A00000241D4000230022994646E61F2A21DC22
:1017B00020252000AD1A1E00AB40A840D6405D1E7B
:1017C000AB4130431843D440430709D00F230340B3
:1017D000042B05D00300181D98429B415B42E4187E
:1017E000230221D50125019B01241D400023002255
:1017F000994622E61F2521006D42281AC1400800A3
:10180000202A1DD05F35AA1A944023435C1EA341B1
:10181000072503431D400022002D09D00F2200247C
:101820001A401800042AD6D1030065076402220B6F
:10183000DB082B4301259946019B00241D40FCE554
:101840000024E2E7802201251203224301991203BA
:10185000120B0D409946044CEFE5C046FF03000013
:10186000FFFFFFFEFE070000FF070000F0B5464641
:10187000D6464F460C03C0B5CD0F4E00610A440F4B
:101880000C43C1005800400D84468A460F001903DE
:10189000500F490A0143C648760DA846DB0FD20017
:1018A000844500D1D8E001204340AB4200D1A6E0FE
:1018B0006046351A002D00DC05E1002810D10B0030
:1018C000134300D1D7E06B1E002B00D04BE15346F1
:1018D0009F1ABA458041641A4042241A01261EE02C
:1018E000B34B9E4248D080231B041943382D00DDA2
:1018F00019E11F2D00DD4CE120230F005B1B1000C0
:101900009A409F40E840531E9A41E94007431743DD
:101910005346DF1B611ABA45A44164420C1B2302E3
:1019200000D4C5E06402650A002D00D1F6E028006D
:1019300000F080FB0300083B1F2B00DDE9E02022C4
:101940003C00D21A9D40D4409F4025439E4200DD7A
:10195000DBE09E1B731C1F2B00DD0AE120223800F8
:10196000D21A290097402C009140D8407A1E974106
:10197000DC40002601430F437B0709D00F233B4087
:10198000042B05D03B1DBB42BF417F42E4191F0021
:10199000230225D5864B01369E4200D1AFE0854B10
:1019A00001251C4043466207FF0864027605174381
:1019B000240B760D1D4000212403230B0C0D7E4AC1
:1019C00024051C431440330523435B00ED075B08EB
:1019D0002B43380019001CBC90469946A246F0BD26
:1019E000012543466207FF081743E4081D40704B7A
:1019F0009E4236D024037605240B760DDBE7634642
:101A0000F31A002B00DC94E06046002835D06848CB
:101A10008642B1D080273F043943382B00DCFDE0FB
:101A20000A43170000217A1E9741574457458041C9
:101A3000091944420C1923023AD55D4B01369E42E6
:101A400000D14BE101225B4B1C407B0817401F4338
:101A5000E207174364088FE70800104300D024E72B
:101A600021E723003B4300D1B9E180221203144354
:101A70002403240B9FE72E007EE70800104300D1CB
:101A8000CAE0581E8446002800D0E7E05244524580
:101A9000804164184042241817000126230207D50C
:101AA0000226CFE764462C4300D1B3E12C00674601
:101AB0007B0700D062E76307FF081F430125434609
:101AC000E4081D4093E7002D78D1751C6D056D0D60
:101AD000012D00DCF2E05046801A8245BF41651AB4
:101AE0007F42ED1B8446280200D48CE05046171A32
:101AF000BA4292410C1B5542651B984614E70125DA
:101B0000434600241D40002755E72A4CF61A2C4076
:101B100032E73D0028388540002717E7380000F0FD
:101B200089FA203006E70A43170000217A1E974100
:101B3000EEE6002B00D0E5E0731C9C465B055B0DD8
:101B4000012B00DC9FE01A4B9C4500D1C5E05244BC
:101B500052458041641840422418E7075208174351
:101B60006408664608E71248854200D185E01D00FA
:101B7000BCE629001F3EF140202B00D17FE040222F
:101B8000D31A9D402F437D1EAF4100240F430026F2
:101B90008EE72B000F00203BDF40202D71D040232B
:101BA0005D1BA9400A43511E8A4100211743AFE63D
:101BB000FF070000FFFF7FFFFFFF0F80002E3ED0DA
:101BC000B34EB44545D0802636046D423443382D9B
:101BD00000DDA8E01F2D00DD1FE120262700504674
:101BE000761BB740E84007435046B040461EB04120
:101BF000EC403843171ABA4292410C1B5242A41AC5
:101C0000664698468BE6644667462C4300D08BE6D2
:101C1000002500260027EAE61E00ADE61F2B60DC4B
:101C20002027F81A0F00844687401000D840074349
:101C300060468240501E8241D9401743F5E6260097
:101C40005046064305D0ED43002DD3D0904EB44509
:101C5000BDD10C001700664698468DE68C4883423D
:101C60000BD06346D9E6002D00D096E00800104363
:101C700000D1E2E00C0017009846854E7CE6002576
:101C800080E700218EE7230050460343002E00D05A
:101C9000A8E0002B00D1DEE00B00134300D16BE67F
:101CA00052445245804164184042241817002302D0
:101CB00000D4FDE6774B66461C405DE625005046A5
:101CC0000543002ECFD1002D4FD10C00144300D17D
:101CD000A0E00C00170098464EE666460024002758
:101CE00085E61F000800203FF8400700202B00D1A8
:101CF0008EE04020C31A99400A43511E8A410021B8
:101D0000174392E6002E14D126005046064362D0B7
:101D1000DB43002B5CD187189742924164185242F2
:101D2000A418664687E650462043441EA04100247E
:101D300060E7574EB4454ED0802636045B423443AC
:101D4000382B00DD7FE01F2B00DD8BE020262700F5
:101D50005046F61AB740D84007435046B040461E9A
:101D6000B0410743DC40BF18D6E70D00154300D152
:101D700002E65046801A8245BF41651A7F42ED1B3C
:101D80008446280200D48DE65046171ABA42924182
:101D90000C1B5242A41A9846EEE50D00154300D1E3
:101DA0006BE750466707C00807438020E40800033C
:101DB000044207D0CD08054204D12C009846D7082C
:101DC00049070F437B0FE4001C43FF00304ED3E56F
:101DD0002F4EB445B4D10C0017006646CCE5002761
:101DE0000024E8E5002B39D00B00134300D144E771
:101DF000C008670707438020E40800030442E1D0DD
:101E0000CB080342DED1D70849070F431C00D9E7AE
:101E1000002171E700250027E9E52E002700203E7C
:101E2000F740202D2FD04026751BAC405046204354
:101E3000441EA04100243843DCE68024002524030E
:101E4000134E0027D3E5504620430700781E8741F4
:101E50000024BF1860E70C0017008DE50C00170088
:101E60000B4E89E51E002700203EF740202B0CD0AA
:101E70004026F31A9C4050462043441EA04107438D
:101E80000024BF1848E70024D0E70024F3E7C04649
:101E9000FF070000FFFF7FFF70B50E4E0D031C0310
:101EA00049005B002D0B490D240B5B0DB14204D0A2
:101EB000084900208B4208D070BD05430120002D49
:101EC000FAD1044900208B42F6D114432000441E6D
:101ED000A041F1E7FF07000030B5134D0A034B00A6
:101EE000120B5B0DC90F0024AB4210DD0F4CA34257
:101EF0000FDC80240E4D64032243ED1A1F2D0BDDF1
:101F00000C48C31ADA405442002900D114002000C2
:101F100030BD094BCC18FAE7084CE840A4466344AE
:101F20009A400243EFE7C046FE0300001D04000094
:101F30003304000013040000FFFFFF7FEDFBFFFFF1
:101F400070B5002830D0C317C4185C40C50F2000FE
:101F500000F070F8174B184A1B1AD21A1F2A18DD06
:101F6000164AD21A9440002224035B05240B5B0D11
:101F70000021100024030A0D240B12052243104CEB
:101F80001B05224013435B00ED075B082B43190040
:101F900070BD210091400A000B21081AC4405B0566
:101FA0002403240B5B0DE3E700250023002400221B
:101FB000DEE7C0461E0400003304000013040000E6
:101FC000FFFF0F8010B5041E28D000F033F8154B2A
:101FD000154A1B1AD21A1F2A15DD144AD21A944028
:101FE000002224035B05240B5B0D00211000240359
:101FF0000A0D240B120522430D4C1B0522401343EE
:102000005B00590810BD210091400A000B21081AFD
:10201000C4405B052403240B5B0DE6E7002300248A
:102020000022E2E71E040000330400001304000055
:10203000FFFF0F801C2101231B04984201D3000CD9
:1020400010391B0A984201D3000A08391B0998422B
:1020500001D30009043902A2105C40187047C04641
:102060000403020201010101000000000000000061
:1020700010B5040001F0FEFFFA218900FEF760F8B8
:1020800000F076F8012000222100404200F032F8F2
:10209000002010BD1021064A10B5136800200B4324
:1020A0001360FFF7E5FF05F0FFFA002010BDC04602
:1020B00000200240024A1368013313607047C04693
:1020C00080160020014B18687047C046801600201B
:1020D00030B583B00190FFF7F5FF019C0500631C4C
:1020E0005A1E9341E418FFF7EDFF401BA042FAD3BC
:1020F00003B030BD70B5002814DB164A03249446A3
:10210000FF22830820401400C026C00089018440BB
:102110000A4082409B006344B6009D59A5432A4370
:102120009A5170BD0C4AFF2494460F230322C0B27B
:10213000034010402200C000890182400C408440CE
:10214000083B9B089B006344DD6995432C43DC619D
:10215000E7E7C04600E100E000ED00E01F23184083
:102160001E3B8340014A13607047C04600E100E017
:102170000A4A431E012093420ED8C021084A09484A
:102180005360036A09061B021B0A0B430362002308
:1021900000209360073313607047C046FFFFFF00C5
:1021A00010E000E000ED00E0212370B5C25C022ADF
:1021B00003D01D3B8363012070BD0E240268056CB3
:1021C0001168A1431160012114688C4314600C0054
:1021D000AC40C26B5460C15400222023C254436BF4
:1021E000002B02D098470020E6E70020E4E7C04635
:1021F0000C4B10B5DA680023D20605D502210A4A35
:10220000D3690B43D3611023064AD16804220A42E2
:1022100005D0012404481343C1692143C161014A27
:10222000D36010BD0020024088160020064B00201D
:102230001A69120606D5054A5A60054A5A60186995
:102240000006C00F7047C0460020024023016745CA
:10225000AB89EFCD8021034A002013690B43136142
:102260007047C04600200240F8B50500FFF72AFF7E
:10227000114C0700012601E06B1C12D1E3681E42DD
:10228000FAD12023E268134214D10B4BDA68D2064C
:1022900003D4DB6800205B0702D5FFF7A9FF01200C
:1022A000F8BD002D04D0FFF70DFFC01B8542E5D21D
:1022B0000320F5E7E360E8E700200240F0B545467B
:1022C0005746DE464E46E0B59A4683B0294B01920A
:1022D00098461B7E04000D000220012B06D103B09E
:1022E0003CBC90469946A246AB46F0BD012342460F
:1022F00021481376FFF7B8FF002833D1012C35D0E1
:10230000022C35D00423013BDBB25B00994600234D
:10231000AA1C914400269B4618E05246DA4013005E
:10232000424659460127154CD16122699BB23A4376
:10233000226111482B80FFF797FF2369BB4323617C
:1023400000280FD1023510364D450BD020235B42BB
:10235000F318E2D5202352469B1B9A40019BF34081
:102360001343DDE7002342461376B8E70123CAE7AB
:102370000223C8E78816002050C300000020024056
:10238000F0B54F464646D646C0B52F4F06003B7EB9
:1023900089460220012B41D001233B7633682B482C
:1023A000012B34D0FFF760FF002834D101234A46C7
:1023B0005B421360B3687568DB025B199D422AD2E9
:1023C0000023234C98460AE080231B019C46726838
:1023D00065449446B368DB026344AB421CD90222D5
:1023E00043469246FB6123691848134323616561A4
:1023F00023693E3213432361FFF736FF52462369B8
:10240000934323610028DFD04B461D6004E0FFF7B3
:102410002BFF002807D0012000233B761CBC9046F0
:102420009946A246F0BD04254022094CF861236973
:1024300006482B432361236913432361FFF714FFED
:102440002369AB432361E7E78816002050C30000EF
:1024500000200240F0B5DE4657464E464546E0B500
:102460000B6885B08B469C460022002B00D1B7E05C
:10247000644BE1469A46644B984667E00368560011
:102480009C4603230327B3406446DB430F40B74019
:102490001C403C43019F0460013F012F00D881E0B4
:1024A0005C46C5682B40A568B5402B43C3608023BC
:1024B0005B05194246D0534601249B6903262343FA
:1024C0005446A361A36901240F2723404F4C1640B3
:1024D000A446B600B74090240393039B93089B0047
:1024E00063449D68E405BD43A04200D17FE0484FAE
:1024F000B84200D17DE0474FB84200D17CE0464F62
:10250000B84200D17BE00527B7403D439D6043467C
:10251000009C1B68E543CC035FD42B4044462360FA
:1025200063688C0356D42B4044466360A368CC0296
:102530004DD42B404446A360E368890244D42B4029
:102540004146CB604B460132D34049D001254C4631
:1025500095402C400094F5D05B46596810230F003D
:102560009F433B000197022F88D10F24053313406E
:102570009B009C40D608B6008619376AA7435C4684
:1025800024699C4023003B43336203235600B3403D
:10259000DB4307681F40BC4603270F40B740644633
:1025A0002743076087685C461F40BC46E76864466F
:1025B000B7402743012487604768AF430D09254092
:1025C00095403D4345606BE700990B43B8E7009C9D
:1025D0002343AFE7009C2343A6E7009C23439DE7EA
:1025E00005B03CBC90469946A246AB46F0BD0027DC
:1025F0008BE70127B74088E70227B74085E7032725
:10260000B74082E700100240000401400000014092
:102610000004004800080048000C00480069084019
:10262000411E8841C0B27047002A01D181627047C3
:102630008161FCE70123074A82B0916919439161E6
:1026400092691340044A0193019B13681843106078
:1026500002B07047001002400000014070B5041E37
:1026600045D0EA23FF33C35CDBB2002B39D0EA2329
:102670000322FF33E254230060682833002201253F
:102680000021002818D01A7001325D70D970D9600D
:10269000196159611C338242F5D1230000200021C9
:1026A0000933FF33187001305970D970D96019613E
:1026B00059611C338242F5D1402201212368442014
:1026C00099520021995219520C301952094900208F
:1026D000995224230022E254EA230122FF33E254D8
:1026E00070BDF4225200835405F00CFABFE70120BC
:1026F000F6E7C04600BFFFFF5822016880208B5AD2
:10270000000203438B5200207047C046F42210B5EC
:102710005200845C03000220012C0AD00138985436
:10272000002907D024229954F422002100205200CD
:10273000995410BD9D3A18688031FF3A8152F3E7F1
:10274000F0B5C6464DB200B5002D62DBCC00641A70
:10275000A4000934FF3404192170F421ED0FE37053
:102760006570E2604900455C0223012D4DD0013BBC
:102770004354E378012B5FD0002B00D13AE1022BC8
:1027800000D12CE1032B4CD003682178A44D8C465A
:102790008E009E193188A84629406546A14F2F43D7
:1027A000394389B23180A17A002950D1617800295A
:1027B00000D1DEE05022995A22780126D2009A18E0
:1027C00052188021C9008C46A1886244B14311800F
:1027D0002178890059180A88520608D545460A8882
:1027E0001540914A15430D802178890059180B88AE
:1027F0008E4A134020225A408A4B13439BB20B80CF
:10280000F42300225B00C2540023180004BC90464D
:10281000F0BD7F242140CC00641AA40028340419A0
:102820009AE721780368890059180D88804E354051
:10283000804E35430D80A8E7217803688900591838
:102840000D887B4E35407C4E35430D809DE75027EB
:1028500022787A4E92009A1811883140784E31438E
:1028600011802278D95BD20052188021C9008C4691
:102870000126E188D2186244B14311802278D95BE5
:10288000D200D21852186F498C4621896244B14354
:1028900011806278002A37D1227892009A18118824
:1028A000490408D5454611880D4067490D431580F8
:1028B000227892009A181188490608D51188584D37
:1028C0002940594D29431180227892009A18118885
:1028D000534D2940544D2943118021785B4D890087
:1028E00059180A881540C02292016A404D4D2A436A
:1028F00092B20A80227892009B1819884B4A0A40AB
:102900002A4392B21A807BE7227892009A181188A3
:10291000490408D5454611880D404B490D431580A3
:10292000227892009A181188490608D511883C4DE2
:1029300029403D4D29431180227892009A18118830
:10294000374D2940404D294311802178374D89006A
:1029500059180A882A40334D2A4392B20A802178B6
:102960003A4A89005B1819880A402A4392B21A80B1
:1029700046E7502621789D5BC9004919314D012752
:10298000AC46A588C9186144BD430D8021789D5B84
:10299000C90049192E4D5D1949193E2A35D95509E5
:1029A000D20639D02B4AAD0215430D802278920011
:1029B0009A181188490408D51188194D2940224DCB
:1029C00029431180227892009A1813881F491940D0
:1029D000C0239B014B4020490B43138010E7217813
:1029E0000368890059180D88114E35401A4E354339
:1029F0000D80CAE621780368890059180D880C4EAD
:102A00003540164E35430D80BFE65508174200D0BD
:102A10000135AD020D80C9E7013DADB2C2E7C04648
:102A20000F0F00008080FFFFC0800000BF8FFFFFFE
:102A30000F09000080860000808400000F0E000057
:102A4000808100000404000080C000008FBFFFFFF1
:102A5000060400000080FFFF8080000080820000EC
:102A60004AB230B5002A00DA6BE0CB005B1A9B005B
:102A70000933FF33C3181970F421D20F5A7049007B
:102A8000445C0222012C21D0013A42549A7A002A55
:102A90001ED15A780468002A5BD11A789200A218D5
:102AA0001188490408D511884F4D29404F4D2943BD
:102AB00011801A789200A21813884D490B404D4995
:102AC0000B431380F42300225B00C254100030BD7E
:102AD0005A780168002A52D11A7892008A1814880C
:102AE000640408D51488404D2C40404D2C4314807C
:102AF0001A7892008A181488640608D514883A4D0A
:102B00002C403D4D2C4314801A7892008A1814886A
:102B1000354D2C40384D2C4314801C78344DA40086
:102B20000C1922882A40354D2A4392B222801A7805
:102B3000334B920089180A8813402B439BB20B80B9
:102B4000C0E77F231940CB005B1A9B002833C318D2
:102B500091E71A789200A2181188490608D51188C1
:102B6000214D2940244D294311801A789200A21842
:102B7000138823490B401F490B431380A2E71A789F
:102B800092008A181488640408D51488164D2C40C5
:102B9000164D2C4314801A7892008A181488640603
:102BA00008D51488104D2C40134D2C4314801A78EE
:102BB00092008A1814880C4D2C400C4D2C43148024
:102BC0001C780F4DA4000C1922882A400B4D2A4373
:102BD00092B222801A78064B920089180A88134014
:102BE0002B439BB20B806DE70F0F000080C00000ED
:102BF0008FBFFFFF80800000C08000008080FFFF4B
:102C0000BF8FFFFFF0B57F2457464E464546DE4650
:102C10002140E0B5CD006C1AA40004192600193635
:102C2000FF3632602700220000261D372132FF3296
:102C3000FF373B601660173A16701534013A117071
:102C4000FF34226893423AD99B1A3B606B1A9B006F
:102C5000C3181C001334FF342478002C32D15026C2
:102C600009330468FF331B78A65BDB009B19704EA9
:102C7000A6199B193E2A00D88EE05609B6B2D20694
:102C800001D1013EB6B26B4AB60216431E80691AE4
:102C9000890040180930FF30037867499B00E3182A
:102CA0001A8800201140C02292014A4063490A4319
:102CB0001A803CBC90469946A246AB46F0BD3E60A9
:102CC0001A00C3E71E000A36FF363778B346046899
:102CD000002F39D150260933FF331B78A65BDB0068
:102CE0009B199946564EA619B1443E2A5DD91F2616
:102CF0001640B44663465709BFB23E00002B01D1CF
:102D00007E1EB6B24B4BB6021E434B461E806E1A59
:102D1000B600861933000A33FF331B78002B6ED1BF
:102D200050230936FF36E25A3378DB009B18404ABD
:102D3000A2189B186246002A01D1013FBFB23D4A4A
:102D4000BF0217431F80A2E7012FA0D15026B04633
:102D5000A65BB14684267600B2469A445346384E66
:102D60001B78B446DB004B441B1963441A805B4656
:102D70001B78002B43D14346E35A2D4E9C465346C5
:102D80001B78A619DB0063449B193E2A4AD85608D3
:102D9000B6B2B446174028E05608B6B2D20701D5FD
:102DA0000136B6B2B6021E8071E701275608B3B2EB
:102DB0009C4617401E00002F01D05E1CB6B24B4649
:102DC000B6021E806E1AB600861933000A33FF332E
:102DD0001B78002B13D150230936FF36E25A337883
:102DE000DB009B18124AA2189B18002F03D06246E2
:102DF000013292B29446624692021A8047E7012B52
:102E000000D044E76E1AB600861909364F33FF36F4
:102E1000E75A3378064EDB00B446E318DB19634407
:102E20001A8034E71F2657091640BFB2B44681E71F
:102E3000060400000080FFFF8FBFFFFF80800000BE
:102E4000020400000B007F211940CB00591A8900B1
:102E500040182130FF3000887047C046F0B57F250C
:102E6000D6464F4646462940CC00A246641AA400E6
:102E70000419C0B5A2632200002601272932E363AA
:102E80002664013A57701170626B934200D89BE040
:102E90009B1AE36353465B1A9B00C3181C00323431
:102EA0002478002C47D104689E6BA44694B2A046B7
:102EB00014049A8D80239146240CDB000134634472
:102EC00064089944002C0CD03300640034194D463A
:102ED0005A781F7812023A439F1B02337A539C425E
:102EE000F5D150236246D45A53465A1A920082189A
:102EF000283213786A4ADB0091464246E0461B19A5
:102F000063444B441A8053465D1AAD004019283083
:102F10000378644A9B0043441E001B880020134032
:102F200030225A40604B13439BB233801CBC904606
:102F30009946A246F0BD0468A0461C0028342478B7
:102F40002933A70047443F881B787D063FD5002BD7
:102F500054D0012B00D197E053465B1A9B00C31855
:102F60001B8E9C4653465B1A9B00C3189F6B8023A5
:102F70001404240CDB000134434464089C44002CFA
:102F80000CD03B0064003C1965465A781E7812024A
:102F90003243DE1B02337253A342F5D153465B1A10
:102FA0009B00C3181A0029321278002A44D0012A43
:102FB000A9D128331B783D4C9B0043441A882240FA
:102FC0003B4C22431A809EE7E6631A0062E7002B1F
:102FD00029D145465033EB5AE400E418304B4344C2
:102FE000E4183E2A3CD953099BB2D50601D1013BD6
:102FF0009BB2304F9B023B43238016E04546503343
:10300000EB5AE400E4182C4B4344E4183E2A1ED942
:1030100053099BB2D50601D1013B9BB2254F9B02C0
:103020003B43238098E7012B23D053465B1A9B0038
:10303000C318DB8D9C4695E728331B781B4C9B00FF
:1030400043441A8822401D4C22431A805BE75308F0
:103050009BB2D50701D501339BB29B0223807BE74E
:1030600053089BB2D50701D501339BB29B02238045
:10307000DBE745464F33EF5AE300094CDB19A44622
:10308000434463441A80D0E745464F33EF5AE30088
:10309000094CDB19A446434463441A805CE7C046EC
:1030A00002040000BF8FFFFF8080FFFF0F0F0000B2
:1030B00080C000000080FFFF06040000C080000008
:1030C000F0B54E46DE46574645464422E0B5036815
:1030D00085B09A5A060012B2002A00DA71E0442242
:1030E000995A49054AD44422995A490403D5995A10
:1030F0009A48014099524422995A890403D5995A11
:1031000097480140995244241A5BD20426D44422A1
:10311000995A09050FD5995A9248082401409952A5
:103120004021585A20435852585A043C2043585280
:103130009A5AD2043ED54422995A890531D4442260
:10314000995AC90503D5995A87480140995205B043
:103150003CBC90469946A246AB46F0BD40220420B6
:10316000995A8143995281493000995204F03AFDAD
:1031700033687F491A5B0A401A53C8E7995A7D4859
:1031800001409952300004F009FDF4225200B35C72
:10319000012B14D04C218020336858520021B154A7
:1031A000A1E7995A744801409952300004F0EEFCAE
:1031B0003368C4E7300004F003FD3368BBE73368CD
:1031C00091E7002202A9CA80ED32FF32944684447E
:1031D000624603AD019244229A5A92B22A8012B2F8
:1031E000002A00DB7BE70F242A88144047D12A8875
:1031F000D20600D42EE11A8802A992B2CA80CA88E7
:10320000120500D4C2E05022995AB832B25CD20002
:1032100052185A49D2188C4662441288970594462F
:1032200032000932BF0DFF32976192887F08D318B0
:103230008022D20090464344002F00D10DE31C00B1
:1032400038000199228801380A70120A4A70023443
:1032500002310028F6D1019A7F009046DB194744DD
:103260006246D20701D51B883B70326844491388F7
:1032700030000B40138004F065FC3368ABE7A2001C
:10328000991800920A8802A892B2C280C28812B22B
:10329000002A00DA0BE102AAD28812069BD5009A16
:1032A00038499F183A88E0000A403A80021B920091
:1032B000B1180A0032321278002A00D07CE1503274
:1032C0009F5A314A92460A00283212789A44D20014
:1032D000D2195746D25B9205920D0A6421D08F6BAA
:1032E0000132B9468027FF00BC46898D52086144EF
:1032F00052004A4488469446020098444F46494644
:103300006046A1469C46434690467A783C78120235
:1033100022437C1A0237E2528742F6D163464C467A
:103320004046041BA40034192100502228319A5A27
:103330000B783000DB0053449A5AA36B92059C46ED
:10334000920D2264E36B6244A2630978002B00D0E3
:10335000A9E004F00FFC33683DE7C046FFBFFFFF64
:10336000FFDFFFFFFFF7FFFFFFFEFFFF00BDFFFFD7
:10337000FFEFFFFFFFFBFFFFFFFDFFFF0604000065
:103380008F0F00000F8FFFFF0204000002AAD288F7
:1033900012B2002A00DB1EE71A88AB4934000A404B
:1033A0001A805022995AB832B25C0934D2005218AD
:1033B000A649D2188C4662441288FF349046920582
:1033C000920DA26126D052089446A2882169D31892
:1033D0008022D2009246624689465344002A0ED08B
:1033E0001F0060463A8801380A70120A4A70023794
:1033F00002310028F6D1624652009B1891444246A1
:10340000D20702D54A461B881370A26923699446E5
:10341000634423610021300004F09EFB5022336896
:103420008A499A5AE06859188A183E2800D901E258
:10343000410889B2C00701D5013189B289021180E2
:103440001A8883491140C02292014A4081490A43A7
:103450001A80C0E61A88804930000A401A8050223B
:10346000995A283AB25CD2009B187C4A5B18944661
:10347000B26B634494461B8800219B059B0D33640B
:103480006344B36304F076FB2422B35C002B0CD0BE
:10349000F16B002909D18024B05C33682043343CAF
:1034A0001853B15497E6FFF7D9FC336893E60A88BE
:1034B00065480240E0000A80021B9200B218110029
:1034C0001331FF310978002900D0CDE05031595A2D
:1034D0005E4F8C4611000931FF310978C900614403
:1034E000BC46C918614409888A468905890D884601
:1034F00000218C464146002937D011001931FF3197
:1035000009680D328C464146490889468021C90028
:103510008B46FF3212885A4493469B444B465A4688
:10352000002B1BD06246A44604005846A346140054
:10353000009F111B095A013B1170090A5170023298
:10354000002BF6D15B462200834618004B466446AA
:1035500094465A465B000097D2189C445346DB07BA
:1035600002D5138862461370C446011B8900711886
:103570000A002132FF321368634413600B001933D1
:10358000FF331A6862441A6004331B68002B08D0AA
:103590008A277F00B846884447463F68674500D879
:1035A00053E1031B9B00F3180933FF3319783000F4
:1035B00004F0D2FA33686EE60A00283212789700D7
:1035C000DF193F887F0600D4B7E05027DF5BD200C9
:1035D000BC46224F6244BA469A445746D25B920593
:1035E000920D0A6421D08F6B0132B9468027FF000B
:1035F000BC46C98D5208614452004A4488469446EC
:10360000020098444F4649466046A1469C464346C0
:1036100090467A783C78120222437C1A0237E252B2
:103620008742F6D163464C464046021B9200B218D0
:10363000283212780A4F92009A1811883940094F9F
:10364000394311806DE6C0468F0F0000060400006C
:103650008FBFFFFF808000000F8FFFFF020400007C
:103660000F0F000080C0000011000931FF31097800
:103670008C46890059180F887F0400D48FE05027AA
:10368000DF5BB8466746FF00BC46754FC444B8468A
:103690009C44C44467463F88B946BF05BF0DB84641
:1036A0000027BC464746002F40D011001931FF319A
:1036B00009680F328C4679088A468021C9008B46FA
:1036C000FF3212885A4493469B4453465A46002B75
:1036D0001BD06246A44604005846A3461400009F2F
:1036E000111B095A013B1170090A51700232002B5B
:1036F000F6D15B4622008346180053466446944642
:103700005A465B000097D2189C444B46DB0702D513
:10371000138862461370031B9B00F3180933FF33B1
:103720001978336889009C466144C4460B884D4A29
:1037300013404D4A13430B8017E75027DF5BD2003D
:10374000D2194A4FD218BC46624412889205920D93
:103750000A6420D08F6B098EB8468027FF00BC46D4
:1037600061448946010001325208520099444244A2
:1037700047469C46484643468946A04614007A7808
:10378000397812020A43F91A02370A52A742F6D1CF
:10379000634644464846324A92469A4445E7502793
:1037A000DF5BB8466746FF00BC46304FC444B846AE
:1037B0009C44C44467463F88BA46BF05BF0DB8461F
:1037C0000027BC464746002FB0D011001931FF3109
:1037D000096811328C46790889468021C9008B46D8
:1037E000FF3212885A4493469B444B465A46002B5C
:1037F0001BD06246A44604005846A3461400009F0E
:10380000111B095A013B1170090A51700232002B39
:10381000F6D15B462200834618004B466446944628
:103820005A465B000097D2189C445346DB0700D4ED
:1038300071E76DE7410989B2C00601D1013989B24A
:103840000B48890201431180FAE50931FF310978FB
:103850003000FFF7D7F933681DE5019F00E5C0464A
:10386000020400000F0F0000C080000006040000EA
:103870000080FFFFF42310B55B00C45C020002204F
:10388000012C24D00138D0544BB2002B20DBCB00CC
:103890005B1A9B00D3181C000B34FF3420701800F7
:1038A0000930FF30017000200A33FF3318700029FF
:1038B0002BD110681C49038819401C4B4B401C49F4
:1038C0000B430380F423002100205B00D15410BD82
:1038D0007F231940CB005B1A9B00D3181C002A34AD
:1038E00020702933023C217018700029E1D0136840
:1038F00089009C4661440B880E48034010205840C4
:103900000D4B03439BB20B80DCE7136889009C4698
:1039100061440B880948184080235B0143400448F8
:1039200003430B80CEE7C046BFBFFFFF101000006F
:1039300080800000BF8FFFFF8080FFFF8FBFFFFFF1
:103940004AB230B5002A44DBCB005B1A9B00093336
:10395000FF33C31800241970F421D20F5A709C70E1
:103960004900445C0222012C18D0013A42545A7892
:103970000468002A14D01A789200A2181188490607
:103980002FD413881C490B40302159401B4B0B434B
:103990009BB21380F42300225B00C254100030BDA0
:1039A0001A789200A2181188490408D51188144D7C
:1039B0002940144D294311801A789200A2181388C7
:1039C00011491940C0239B014B4010490B43138000
:1039D000E0E77F231940CB005B1A9B002833C31814
:1039E000B8E71188064D2940094D294311801A78FE
:1039F0009200A218C5E7C046BF8FFFFF8080FFFF7F
:103A00000F0F000080C000008FBFFFFF808000000C
:103A1000C080000010B50C060FD57F242140CC00DB
:103A2000611A890028314018002A0ED00122C38073
:103A30001B0C82720381002010BDCC00611A89002A
:103A40000931FF314018002AF0D182728380F2E7F9
:103A5000F0B5CE46474680B5036883B00400DA0768
:103A60002FD50C22C34841681140042900D11AE126
:103A700041680A40082A00D10CE16368012B00D19B
:103A800070E1002B00D118E1052B00D1E5E1B94B25
:103A9000B9491A680A401A601A68B8490A401A6097
:103AA000FEF710FB80250700B24EAD0205E0FEF7E1
:103AB00009FBC01B642800D939E133682B42F6D0DA
:103AC00023689A0729D50C22AA494868024200D1E6
:103AD000C4E048680240082A00D1B6E0E368A54D7A
:103AE000002B00D152E101222B68022613432B60E8
:103AF000FEF7E8FA070005E0FEF7E4FAC01B02282B
:103B000000D914E12B681E42F6D0F8212A682369F7
:103B10008A43DB0013432B6023681A0700D57DE03E
:103B20005A0740D580220020924B5205D969804621
:103B3000114208D1D9691143D961DB691A40019258
:103B4000019B0123984680278D4E7F0033683B42BE
:103B500000D1D7E0A368012B00D1E3E0002B00D116
:103B6000E7E0052B00D1A2E10121824B1A6A8A43CA
:103B70001A621A6A03318A431A62FEF7A3FA7D4F6A
:103B8000814602267F4D06E0FEF79CFA4B46C01A9E
:103B9000A84200D9CBE03B6A1E42F5D04346012B38
:103BA00000D11DE12368DB0612D56369012B00D12A
:103BB0005FE1053300D0FCE00421F8206D4A536B2F
:103BC0008B435363516BA3698143DB000B43536306
:103BD000236A002B1CD00C22664D69680A40082A13
:103BE00043D0022B00D102E12B68674A2C0013401E
:103BF0002B60FEF767FA80250600AD0405E0FEF7AE
:103C000061FA801B022800D991E023682B42F6D18B
:103C1000002003B00CBC90469946F0BDE369554DB9
:103C2000002B24D001226B6A022613436B62FEF73D
:103C300049FA070004E0FEF745FAC01B022876D8CF
:103C40006B6A1E42F7D023686AE74A68C0214902BE
:103C50000A40802109028A4200D03FE7454A1268A3
:103C6000920743D5E268012A40D00120D1E7012222
:103C70006B6A022693436B62FEF724FA070004E0A6
:103C8000FEF720FAC01B022851D86B6A1E42F7D1FA
:103C9000236845E7C021426849020A408021490261
:103CA0008A4200D0E9E6334A1268920300D408E75A
:103CB0006268002A00D004E7D7E72E4D2E4A2B6811
:103CC000802613402B602B682C4AB60213402B60D1
:103CD000FEF7F8F9070004E0FEF7F4F9C01B6428CA
:103CE00025D82B683342F7D12368EAE6F825214826
:103CF00022690168D200A9430A4302601A0700D46E
:103D00000EE78BE733683B433360FEF7DBF90500D2
:103D100004E0FEF7D7F9401B642808D833683B421B
:103D2000F7D017E713490A6A13430B6225E703200C
:103D30006FE701220F4E0227336A124D934333621D
:103D4000336A033293433362FEF7BCF9814605E0E0
:103D5000FEF7B8F94B46C01AA842E8D8336A1F42AA
:103D6000F6D11BE78023034A5B0211680B43136003
:103D700096E6C04600100240FFFFFEFFFFFFFBFF7C
:103D80000070004088130000FFFFFFFE01222B6837
:103D9000022693432B60FEF795F9070004E0FEF737
:103DA00091F9C01B0228C2D82B681E42F7D12368A4
:103DB000B3E60422434D02266B6B13436B636B6BBC
:103DC000033A93436B63FEF77DF9070004E0FEF7C7
:103DD00079F9C01B0228AAD86B6B1E42F7D1F7E60F
:103DE000384A3949D3690B40D3612368DBE62B6835
:103DF000364A802613402B60FEF764F9B6040700AC
:103E000004E0FEF75FF9C01B022890D82B6833420C
:103E1000F7D10F22EB6A9343E26A1343EB62616AC4
:103E2000A36A6A680B432A4980240A4013436B60E3
:103E300080232A685B0413432B60FEF743F9214D6E
:103E40000600A40405E0FEF73DF9801B022800D916
:103E50006DE72B682342F6D0DAE68022194BD202B6
:103E600019680A431A608022196852020A431A60CC
:103E700016E60421134D02266A6B0A436A636A6BD5
:103E800013436B63FEF71EF9070005E0FEF71AF90E
:103E9000C01B022800D94AE76B6B1E42F6D0F821FE
:103EA0006A6BA3698A43DB0013436B6390E60421CA
:103EB000044B1A6A0A431A621A6A03390A431A62DD
:103EC0005BE6C04600100240FFFFFFEFFFFFFFFE72
:103ED000FF7FC2FF70B5124B88B018006A4670C8E9
:103EE00070C200681033106004AA100070CB70C05C
:103EF0001B680C4C03600C23606869460340082B68
:103F00000CD1E56A0733800C18402B400C5CD15C67
:103F10000548FCF715F9604308B070BD0248FBE79F
:103F2000A8FF00080010024000127A00F8B5012234
:103F3000CE4647460C00494980B50B680500134042
:103F4000A3420CD20B68934323430B600B681A40C7
:103F5000944204D001200CBC90469946F8BD2B68D1
:103F60009A0706D5F0203E494A688243A868024372
:103F70004A60DB0724D53A4B6A681B68012A4AD09D
:103F8000022A43D09B07E5D50321354E73688B4346
:103F900013437360FEF796F86B680700012B3DD062
:103FA000022B4BD00C2398462E4B994604E0FEF78B
:103FB00089F8C01B48452CD8424673681A42F6D18E
:103FC0000121264A13680B409C4205D213688B439B
:103FD000136013681942BDD12B685B0706D5204AD0
:103FE000214953680B40E9680B435360FFF772FFA8
:103FF0001B4B1E4A5B681B061B0FD35CD8401C4B37
:1040000018600020FEF734F80020A4E79B01BBD421
:10401000A0E703209FE79B03B6D49BE70B339846AA
:10402000104B994604E0FEF74DF8C01B4845F0D808
:10403000424673681340042BF5D1C1E70A33984612
:10404000084B994604E0FEF73DF8C01B4845E0D810
:10405000424673681340082BF5D1B1E700200240B7
:104060000010024088130000FFF8FFFF80050108E0
:1040700038010020014B18687047C0463801002005
:10408000044B054A5B685B055B0FD35C034A106811
:10409000D840704700100240900501083801002008
:1040A000F0B5CE46474680B5036883B00400DA0316
:1040B00039D580220020414B5205D96980461142F2
:1040C00008D1D9691143D961DB691A400192019B7A
:1040D0000123984680263A4D76002B68334255D00E
:1040E000C021364D89002A6A0A404DD060680140DF
:1040F0008A420ED08022296A2E6A520232432A62F4
:104100002A6A304B304E0B4032402A622B62CB077A
:104110002BD42A4A2B49136A0B40034313624346AC
:10412000012B43D02368DA0706D5032023490A6B05
:104130008243A06802430A639A060ED400209B03C0
:1041400006D580211D4A136B8B4321690B431363F2
:1041500003B00CBC90469946F0BD102017490A6B7D
:104160008243E06802430A63E8E7FDF7ABFF174BC1
:1041700007000226994604E0FDF7A4FFC01B48454E
:104180001AD82B6A1E42F7D06068C2E72B68334307
:104190002B60FDF797FF070004E0FDF793FFC01BBE
:1041A000642809D82B683342F7D099E7D3690849C6
:1041B0000B40D3612368B6E70320C9E70010024033
:1041C00000700040FFFCFFFFFFFFFEFF88130000B0
:1041D000FFFFFFEFE021036810B55A688A435A6079
:1041E000822241685200914213D08021826A890163
:1041F0008A4206D119680E4C2140196019680A4399
:104200001A6001225D23C2540022013BC2540320E4
:1042100010BD8021826809028A4203D08021C90032
:104220008A42E2D140211A688A431A60DDE7C0461B
:10423000FFDFFFFFF8B506000C001700802532688D
:1042400093681D4201D10020F8BD631CF8D0002CFA
:1042500004D0FDF737FFC01B8442F0D83000FFF7D1
:10426000B9FFF1E7F0B54746CE4680B583B0994631
:10427000C0276B4680460C001600FF00DD1D43463C
:104280001A6801E0731C0AD19368234213D0BC4220
:10429000F8D1137BDBB22B702B78731CF4D0002E7B
:1042A00005D0FDF70FFF4B46C01A8642E7D84046BF
:1042B000FFF790FF00E0002003B00CBC9046994649
:1042C000F0BDC04670B513000D0016000A00C021F5
:1042D00049010400FFF7C6FF002805D02022032073
:1042E000236E1343236670BD320029002000FFF7C0
:1042F000A1FF0028F2D1C02133002A00C90020000C
:10430000FFF7B0FF0028E9D1EDE7C046F8B54E460B
:104310004546DE465746E0B516001F0001225C23E5
:10432000C254040088460A9DFDF7CCFE5D23E35C81
:104330008146DBB26268012B15D082210220490040
:104340008A420BD001225D23E2540022013BE25459
:104350003CBC90469946A246AB46F8BDA1680029F0
:10436000F0D1042BEED143460120002BEAD0002EE1
:10437000E8D0002FE6D05D23E15C042901D00521BF
:10438000E1540023442146202366266427526752C5
:104390004146E3642365E023A163E168E787A787DB
:1043A000DB0099426DD8235A012B00D8C2E0236864
:1043B000814F5868384058601868400607D4402735
:1043C000186838431860E020C000814261D8002A94
:1043D00000D0A6E0E28F012A00D8E1E04246128830
:1043E000DA6002239C46E38FE044023B9BB2E38702
:1043F00001239A46013346279B46E38F002B03D1C6
:10440000E35B002B00D1B0E05346002B17D0E38FC5
:10441000002B14D0594623689A6811420FD0E28FBE
:10442000012A00D8AFE042461288DA6002239C4697
:10443000E38FE044023B9BB2E38700239A46E35BB1
:10444000002B14D023689A68D20710D5E25B012AAA
:1044500000D87AE00121DA688A463280E25B0236CF
:10446000023A92B2E253E25B012A00D877E06B1C79
:10447000C3D0FDF727FE4B46C01A8542BDD80320A6
:1044800060E723684C4F5868384058601868400609
:1044900095D5002A4AD142461288DA6002239C460A
:1044A000E38FE044013B9BB2E38701239A4601334B
:1044B00046279B46E38F002B02D1E35B002B54D0B1
:1044C0005346002B13D0E38F002B10D0594623689E
:1044D0009A6811420BD042461288DA6002239C4649
:1044E000E38FE044013B9BB2E38700239A46E35B02
:1044F000002B0CD023689A68D20708D5DB6833807C
:10450000E35B0236013B9BB2E35301239A466B1CEB
:10451000D0D0FDF7D7FD4B46C01A8542CAD803203C
:1045200010E7E28F012A00D062E753E7E28F012A09
:10453000BBD1B0E78020236840015F6838435860F2
:104540001868400600D542E739E71B7B3370E35B10
:104550000136013B9BB2E35301239A4687E7802251
:10456000596852010A435A6081E74A4629002000EF
:10457000FFF7A8FE002801D020232366206E431EEB
:104580009841C0B2DEE6424612781A73E38F013BCF
:104590009BB2E38701239C460023E0449A464EE702
:1045A000424612781A73E38F013B9BB2E3870123E3
:1045B0009C46E0441CE7C046FFEFFFFFF8B58223AE
:1045C0001700426804000E005B009A4225D03A00B2
:1045D00031002000FFF72EFE051E06D02022032505
:1045E000236E134323662800F8BD822362685B00B4
:1045F0009A42F8D18022A3681202934203D080220B
:10460000D2009342EFD1C0213B003200C90020000C
:10461000FFF728FE0028E1D1E5E780228368120237
:10462000934203D08022D2009342D0D1402122680D
:1046300013688B431360CAE7F8B5041E66D00023E5
:1046400083625D33C35CDBB2002B5AD002225D2350
:104650004021E2542268E56813688B431360E0232D
:10466000DB009D420BD9F0231B019D4241D1236BFE
:10467000A76A002B43D102230021236312E09D424D
:1046800008D00023276BA362002F07D080210027CA
:10469000490107E0236BA76A002B01D101232363A3
:1046A00080214901A6686368A069334326693343C2
:1046B00066693343E6693343266A33438026B6008E
:1046C000064033433B431360636A000C2B43656B26
:1046D0002B430425284003430B435360D3690C4903
:1046E00000200B40D3610023012223665D33E25496
:1046F000F8BD0023276BA362002FBCD00027002148
:10470000D0E75C22835402F0E7FF9FE70120EFE748
:10471000FFF7FFFFF0B54746CE4680B51F005C238C
:104720009046C25C83B004000D000226012A05D128
:10473000300003B00CBC90469946F0BD0122C25433
:10474000FDF7C0FC5D23E25C8146012A06D0012210
:104750005D23E2540022013BE254E9E7002D00D141
:10476000A7E04246013E002AF1D00322E254002392
:1047700042462366A287E28744222364A563A352AC
:104780000232A3522365E3648023A2681B029A428B
:1047900000D190E02368402219680A4202D11968CA
:1047A0000A431A60E022E168D200914243D962686C
:1047B000002A2CD0E28F012A29D00226E38F002B79
:1047C0000DD023689A68164229D02A880235DA600B
:1047D000E38F013B9BB2E387E38F002BF1D14A4685
:1047E00039002000FFF76EFD002801D0202323664A
:1047F000A368002B06D101932368DA6801929B68B5
:104800000193019B266E731E9E41F6B29FE72A8894
:104810000235DA60E38F013B9BB2E387CDE7002FDF
:1048200007D07B1CCAD0FDF74DFC4B46C01A87420F
:10483000C4D803268BE76268002A27D0E28F012ABA
:1048400024D00226E38F002BC9D023689A68164231
:1048500010D0E28F012A24D92A880235DA60E38F4A
:10486000023B9BB2E387E38F002BB8D023689A68A2
:104870001642EED1002FDCD07B1CE3D0FDF722FCEA
:104880004B46C01A8742DDD8032660E7E28F012A33
:1048900018D92A880235DA60E38F023B9BB2E3879E
:1048A000CFE72A7801351A73E38F013B9BB2E38788
:1048B000C8E701264BE780222368D20119680A4322
:1048C0001A6068E72A7801351A73E38F013B9BB2BF
:1048D000E387B6E7F0B54746CE461E00822380B593
:1048E0001700426883B004000D005B009A421AD0A2
:1048F0005C23E25C012A05D1022003B00CBC904687
:104900009946F0BD0122E254FDF7DCFB5D23E25C39
:1049100080460220012A16D001225D23E2540022A3
:10492000013BE254E9E78368002BE1D104225D33C7
:10493000C254013BC35C012BDED000963B000A0051
:10494000FFF7E4FCD9E7002D00D185E00138002F06
:10495000E2D00332E2540023403223662564A7529A
:104960000232A752A363A387E387E3642365E023AE
:10497000E268DB009A4268D923683B4859680140E5
:1049800059608021A0680902884267D040211868D8
:10499000014202D1186801431960E0234627DB0079
:1049A0009A422DD901239946E35B002B0ED049464C
:1049B00023689A68114217D0DB682B80E35B0235CD
:1049C000013B9BB2E353E35B002BF0D14246310045
:1049D0002000FFF7F3FD002801D020232366206E7E
:1049E000431E9841C0B297E7002E07D0731CDBD05E
:1049F000FDF768FB4346C01A8642D5D803208BE7F3
:104A000001239946E35B002BE0D0494623689A686E
:104A100011420ED01B7B2B70E35B0135013B9BB237
:104A2000E353E35B002BD1D0494623689A681142D7
:104A3000F0D1002EE2D0731CE4D0FDF743FB4346D7
:104A4000C01A8642DED8032066E780212368490128
:104A500058680143596094E701205DE719680348ED
:104A60000140196092E7C046FFEFFFFFFFBFFFFF65
:104A700030B504005C20255C83B05A38012D04D089
:104A8000069800902000FFF741FC03B030BDC046FF
:104A900003680120D9680143D9601A6802431A608B
:104AA0000020704701210368DA688A43DA60186AD7
:104AB000054A104206D1186A044A104202D11A6807
:104AC0008A431A600020704711110000440400005E
:104AD0007047C0467047C0467047C0467047C046E2
:104AE0000222036810B5196904000A4202D0D9688D
:104AF0000A4268D1042219690A4202D0D9680A42DE
:104B00004ED1082219690A4202D0D9680A4236D128
:104B1000102219690A4202D0D9680A421CD1012226
:104B200019690A4202D0D9680A4269D180221969FA
:104B30000A4202D0D9680A4269D1402219690A4260
:104B400002D0D9680A4254D1202219690A4202D0FF
:104B5000D9680A4247D110BD213A1A611932227729
:104B6000DA69C0239B0020001A425BD1FFF7B0FF37
:104B70002000FFF7B1FF002323772368CFE7113A26
:104B80001A61DB690D32227720009B0750D1FFF7B5
:104B90009FFF2000FFF7A0FF002323772368B7E7DC
:104BA000093A1A61073222779A69C0239B002000D4
:104BB0001A423AD1FFF78CFF2000FFF78DFF002348
:104BC000237723689DE7053A1A619B6904320277CF
:104BD0009B0724D1FFF77CFF2000FFF77DFF002318
:104BE0002377236886E7413A1A61200000F088F8AD
:104BF000B1E7813A1A612000FFF770FF2368A3E74D
:104C0000033A1A61200002F0EDF923688EE7023AB8
:104C1000FF3A1A61200000F075F823688DE7FFF76E
:104C200059FFDCE7FFF756FFA5E7FFF753FFC6E79D
:104C3000FFF750FFB0E7C0461D4A036890421AD004
:104C40001C4A90422BD01C4A90422CD01B4A9042C6
:104C500015D01B4A904212D01A4A90420FD080229F
:104C600093434A69134303608B68C3620B68836292
:104C7000012343617047702293434A681343124AE9
:104C80001340CA681343802293434A691343036065
:104C90008B68C3620B6883620B690363E8E7702269
:104CA00093434A681343084A1340CA681343D6E73C
:104CB000002C014000040040002000400040014062
:104CC0000044014000480140FFFCFFFF70B5041E96
:104CD00014D03D23C35CDBB2002B0AD002233D2558
:104CE00020686355211DFFF7A7FF012300206355AE
:104CF00070BD3C22835402F021FDEFE70120F7E76D
:104D00007047C0467047C0460300692030B51C5C40
:104D10006738202C00D030BD002924D00138002A6B
:104D2000F9D080249D686401A54216D068241D5DD9
:104D30000220012DEFD0D96450215A5202315A522B
:104D400000221F301731DA6658541A551A68173185
:104D5000136800200B431360DDE71C69002CE5D1CC
:104D60000142E3D0D7E70120D5E7C04603006A201F
:104D700070B51C5C6838202C00D070BD00294BD069
:104D80000138002AF9D080259C686D01AC4226D0FC
:104D900068255E5D0220012EEFD00120585559652F
:104DA00058215A5202315A52002C2AD11A69002A2B
:104DB0003ED07F215C229952002222206A21DA66AD
:104DC000585402395A541B6867399A6800200A43BC
:104DD0009A609022196852000A431A60CDE71C6954
:104DE000002C1BD10142C8D16820185C012823D0B7
:104DF000596558215A5202315A525C220F49995230
:104E0000DAE7802252059442D6D11A69002AD0D01E
:104E10003F215C229952CFE70120AEE768201C5C5D
:104E20006638012CA9D0596558215A5202315A527C
:104E3000FF215C229952BFE702209EE7FF0100009C
:104E40007047C0467047C04600235A2210B5406ADA
:104E50008352083A8352FFF7F5FF10BD70B5050085
:104E60000468C16983680069226803436869034371
:104E700049480B430240134323606368474A286A4A
:104E80001340EA6813436360AB69A2680343444874
:104E900002401343A360434B9C4224D0424B9C42AC
:104EA0000DD0424B9C420AD0414B9C4207D08023FC
:104EB0001B02994215D100230120E36070BD8023BD
:104EC0001B0299423FD0FFF7DBF869684B081818BE
:104ED000FBF736F90004000CE0600020EEE7002B41
:104EE000F1D00120EAE7334B1A6B03231340324A17
:104EF000D35C80221202914237D0022B11D0EED91E
:104F0000042B12D0082BECD1802369681B024808BF
:104F10009C466044FBF714F90004000CE06000209C
:104F2000CCE76968254B4808F2E7FEF7D3FF6968CC
:104F30004B081818FBF704F90004000CE06000208F
:104F4000BCE7002BB7D1FFF79BF86B6840005B080C
:104F5000C0186968FBF7F4F82C680F2203075B0F91
:104F6000904303439BB20020A7E7022B0DD0E8D962
:104F7000042B0ED0082B9ED1802369685B02480861
:104F80009C466044FBF7DCF8E7E769680C4B48088F
:104F9000F6E7FEF79FFFD8E7F369FFEFFFCFFFFFCC
:104FA000FFF4FFFF0038014000440040004800408B
:104FB000004C0040001002404800010800127A0036
:104FC0000024F400436A30B5DA0706D50168284C9E
:104FD0004A682240846A22434A609A0706D50168DB
:104FE000244C4A682240C46A22434A605A0706D5C4
:104FF0000168214C4A682240046B22434A601A0728
:1050000006D501681D4C4A682240446B22434A6021
:10501000DA0606D501681A4C8A682240846B22435E
:105020008A609A0606D50168164C8A682240C46BCD
:1050300022438A605A060AD50168134D4A68046CF7
:105040002A4022434A6080225203944209D01B0620
:1050500006D502680D4953680B40816C0B435360C1
:1050600030BD4A680A4C2240446C22434A60EEE755
:10507000FFFFFDFFFFFFFEFFFFFFFBFFFF7FFFFFC7
:10508000FFEFFFFFFFDFFFFFFFFFEFFFFFFFF7FF78
:10509000FFFF9FFF10B5041E2CD06923C35CDBB259
:1050A000002B29D0242269230121E2542268200008
:1050B00013688B431360FFF7D1FE01281AD0636A8F
:1050C000002B1ED1236811495A6800200A4008218C
:1050D0005A609A688A439A601A6807390A431A60C4
:1050E000202200236831E366625401316254483261
:1050F000A35410BD0120FCE76822835402F054FB46
:10510000D0E72000FFF75EFFDCE7C046FFF7FFFFB8
:105110006922825C03000220212A00D070473132CC
:105120009A5A002A11D0802299685201914217D0D0
:10513000DA6C511CD964127819680A8552215A5ABE
:105140000020013A92B25A52E8E780211B68002001
:105150001A688A431A601A6840390A431A60DDE700
:105160001A69002AE4D1D96C18680A880231D2057C
:10517000D20D0285D964E1E76A2310B5C35C222B06
:1051800007D008210224026893690B439361200031
:1051900010BD80223A33C15A036884689B8C520147
:1051A0009BB294421CD0426D0B40541C446513705A
:1051B0005A22835A0024013B9BB28352002BE6D132
:1051C00003680C491A680A401A609A682331FF3153
:1051D0008A439A6020226A23C25402F0A1FFD6E7D4
:1051E0000269002ADFD1426D0B4013800232426512
:1051F000DEE7C046DFFEFFFF036870B5DA69040032
:10520000196810070FD1202010425AD198688020C9
:10521000104202D0084200D07CE04020104201D071
:10522000084267D170BD0125986828404FD00125FC
:10523000154205D0CE0503D51D62E66E3543E56601
:10524000022515424BD0002806D004261D62E56ECB
:105250003543E566164246D1150703D58D0653D46E
:10526000002851D1E06E0028DCD02020104201D06F
:10527000084257D1E26E120703D440259A681540C0
:1052800055D01A682C490A401A609A682331FF31B8
:105290008A439A606A221F31A1549A6820311142D0
:1052A0003CD09A68606E8A439A60002836D0234BBF
:1052B0004363FCF779FF0028B4D0606E436B9847D6
:1052C000B0E70842A2D02000FFF756FFAAE79025DA
:1052D0006D0029429BD001251542B1D0AAE75507A0
:1052E000BAD50028B8D0042502261D62E56E3543E4
:1052F000E566B1E71A6882431A602022692320001C
:10530000E254FFF79DFD8DE708251D62E06E2843FE
:10531000E066A7E72000FFF7FBFE83E72000FFF72A
:1053200091FD7FE72000FFF727FF2368A2E7200019
:10533000FFF788FDE56675E7DFFEFFFF494E0008D1
:1053400086239B00C358002B05D085220021002016
:105350009200995070470220FCE7C04686239B00CC
:1053600070B5C4580433C358002B0BD08025AD0052
:10537000605DFF2806D0044A9B68A25C2100984724
:10538000FF236355002070BD01020000432303800A
:1053900000487047380000204323038000487047CE
:1053A0007C0000204323038000487047CC0000208D
:1053B0000A23038000487047C000002070B586268D
:1053C000B6000400855902F0FFFC83239B00E850DF
:1053D000A3590220002B09D083239B00E918083B26
:1053E000E8581833E358DB689847002070BDC04682
:1053F000602370B50C00097805000B4015D0202BF8
:1054000011D1E288002A24D0F933FF3349B2C658BB
:10541000002912DB802361789B00F154114B31008D
:10542000F25400F087FC002070BD63780A2BFAD19B
:1054300001220D4900F068FCF5E70433EB58310018
:1054400060789B689847E2883100280000F05CFC97
:10545000E9E787239B00EB5860789B6800222100D6
:105460009847E0E7010200008C03002070B50400BB
:105470008625812102F030FC0121200002F02CFC65
:10548000AD008221200002F027FC6359002B09D0D7
:1054900087239B00E3585B689847605902F0A0FCA3
:1054A00000236351002070BDF8B5037C0400002B7D
:1054B00032D1802302229B00812102F0F9FB80235C
:1054C00002229B000121200002F0F2FB8727082323
:1054D000032282212000BF0002F0EAFB862638006A
:1054E00002F07AFCB600051EA0512BD0E3591B68D0
:1054F0009847852200239200AB50AB51237C002BB0
:1055000016D081239B00EA58C53BFF3B01212000B8
:1055100002F04AFC0020F8BD40230222812102F063
:10552000C7FB402302220121200002F0C1FBCDE78E
:1055300081239B00EA580121043B200002F034FC47
:105540000020E8E70120E6E7002904D087239B003C
:10555000C150002070470220FCE7C04686239B0014
:10556000C3588220800019508421890000205A509D
:105570007047C04686239B00C258143B0020D15080
:105580007047C04686239B00C25810B5002A13D02E
:105590008521890054580123002C01D0180010BD2A
:1055A000535084230C399B00D35A52588839FF3901
:1055B00002F0EAFB0023F1E70223EFE786239B00DA
:1055C000C35810B5002B15D0027C002A08D08122C8
:1055D00092009A580121402302F0E6FB002010BD02
:1055E000812292009A58802301219B0002F0DCFB6B
:1055F0000020F4E70220F2E710B5002814D085233C
:105600009B00C458002C01D00024C450002902D0B3
:1056100084239B00C150FE2301215B00C154027012
:1056200002F0F4FA002010BD0220FCE7002904D0AB
:1056300085239B00C150002070470220FCE7C04634
:1056400010B502F025FB002010BDC04685239B004D
:10565000C35810B5002B03D01B689847002800D012
:10566000022010BD852310B59B00C3585B68984786
:10567000002010BD82239B0070B5C51804002800CF
:1056800000F006FBFA2301225B00E250124BE25AC3
:10569000163BE2501033E15CEA3BFF3B0B40012B31
:1056A00014D0002B0DD0022B06D07F23200099436D
:1056B00002F022FB002070BD2900200000F074FAE7
:1056C000F8E72900200000F0EBF8F3E729002000BC
:1056D00000F048FAEEE7C0460E02000010B51300D5
:1056E0000400002906D1FA2252008258032A0ED063
:1056F000002010BD85239B00C3589B69002BF7D069
:10570000FE225200825C032AF2D19847F0E7411D45
:10571000FF318868CA6890420ED885239B00E35801
:105720001B69002B04D0FE225200A25C032A0ED07B
:10573000200000F017FBDBE7801A8860824200D966
:10574000020092B21900200000F004FBD0E7200014
:105750009847EDE7F8B50400130000290BD1FA22B1
:1057600052008258022A16D080239B00E25C012A54
:105770000ED00020F8BD85239B00C3585B69002B29
:10578000F7D0FE225200825C032AF2D19847F0E75C
:105790000022E254EDE7C269056AAA4229D8866967
:1057A00029003000FAF752FD0F1E13D1B54211D86F
:1057B000FC256D0063599E420CD20022002120007E
:1057C00000F0B0FA6751002300220021200002F00F
:1057D000EBFAC9E785239B00E358DB68002B04D074
:1057E000FE225200A25C032A0AD0200000F0C6FA72
:1057F000BAE7521BC261190092B200F093FAE2E7D5
:1058000020009847F1E7C04670B5402300220021F0
:10581000040002F04DFA882340255B00E550002289
:10582000D03B8021200002F043FAFE2301225B00DE
:105830002562E2541C33E358002B06D085239B00DD
:10584000E35821795B6820009847002070BDC0466E
:10585000017400207047C046FE23FE225B00C15C3D
:10586000FF328154FA3AFF3AC25400207047C046D2
:10587000FE23FF33C25C013BC25400207047C04688
:10588000FE2310B55B00C35C032B01D0002010BDCC
:1058900085239B00C358DB69002BF7D09847F5E7B9
:1058A00070B54B7882B004000D00092B0AD8A94AC4
:1058B0009B00D3589F468B88002B03D1CB88002BAD
:1058C00000D177E08021200002F016FA00212000AC
:1058D00002F012FA002002B070BD8B789E4D2B7042
:1058E000012BEFD8FE214900425C022A00D181E061
:1058F000032AE7D1002B00D121E14168012909D019
:10590000C9B2FFF7AFFE297820006160FFF79EFE65
:105910000228D7D0200000F025FADBE7FE235B0049
:10592000C35C023B012BCDD80123C36081239B00C4
:10593000C358002B01D00323C360210002220C3185
:10594000200000F0E1F9C5E7FE235B00C35C023BE9
:10595000012BB7D84B88012BBCD1812300229B009F
:10596000C250103307E04B88012BB3D18122920043
:10597000835085239B00E35829009B6820009847AB
:10598000C8E74A88130A072B9CD874499B00CB5858
:105990009F46CB88012B00D094E7FC33FF33C35CD8
:1059A000022B1FD0032B00D08CE7011D012200F039
:1059B000ABF98FE7FE267F254B8876001D40835D7F
:1059C000032B00D17EE7FF235B00C554290002F0C2
:1059D000CBF9200000F0C6F9002D00D1A1E0022390
:1059E000A35577E70023010083600831012200F00E
:1059F0008BF96FE7002B8DD00123436002334354B2
:105A00000121FFF723FE022800D083E75AE7037C39
:105A1000002B00D056E76B469E1D85239B00C35884
:105A200030001B6B9847072343703388002B00D14D
:105A300050E7EA88002A00D14CE7191C934200D9AC
:105A4000111C8AB231800100200000F05DF941E7AD
:105A5000037C002B00D035E76B469E1D85239B0001
:105A6000C35830005B6B9847DFE76B469E1D84236D
:105A70009B00E35831001B68007C9847D5E7D2B201
:105A8000052A00D91EE7364B92009B589F46037C9F
:105A9000002B49D16B469E1D85239B00C3583000C7
:105AA0009B6A984702234370BFE76B469E1D842381
:105AB0009B00E3583100DB68007C9847B5E76B46F4
:105AC0009E1D84239B00E35831009B68007C98470F
:105AD000ABE76B469E1D84239B00E35831005B6857
